{
  "_format": "hh-sol-artifact-1",
  "contractName": "Domains",
  "sourceName": "contracts/Domains.sol",
  "abi": [
    {
      "inputs": [
        {
          "internalType": "string",
          "name": "_tld",
          "type": "string"
        }
      ],
      "stateMutability": "payable",
      "type": "constructor"
    },
    {
      "inputs": [],
      "name": "AlreadyRegistered",
      "type": "error"
    },
    {
      "inputs": [
        {
          "internalType": "string",
          "name": "name",
          "type": "string"
        }
      ],
      "name": "InvalidName",
      "type": "error"
    },
    {
      "inputs": [],
      "name": "Unauthorized",
      "type": "error"
    },
    {
      "anonymous": false,
      "inputs": [
        {
          "indexed": true,
          "internalType": "address",
          "name": "owner",
          "type": "address"
        },
        {
          "indexed": true,
          "internalType": "address",
          "name": "approved",
          "type": "address"
        },
        {
          "indexed": true,
          "internalType": "uint256",
          "name": "tokenId",
          "type": "uint256"
        }
      ],
      "name": "Approval",
      "type": "event"
    },
    {
      "anonymous": false,
      "inputs": [
        {
          "indexed": true,
          "internalType": "address",
          "name": "owner",
          "type": "address"
        },
        {
          "indexed": true,
          "internalType": "address",
          "name": "operator",
          "type": "address"
        },
        {
          "indexed": false,
          "internalType": "bool",
          "name": "approved",
          "type": "bool"
        }
      ],
      "name": "ApprovalForAll",
      "type": "event"
    },
    {
      "anonymous": false,
      "inputs": [
        {
          "indexed": true,
          "internalType": "address",
          "name": "from",
          "type": "address"
        },
        {
          "indexed": true,
          "internalType": "address",
          "name": "to",
          "type": "address"
        },
        {
          "indexed": true,
          "internalType": "uint256",
          "name": "tokenId",
          "type": "uint256"
        }
      ],
      "name": "Transfer",
      "type": "event"
    },
    {
      "inputs": [
        {
          "internalType": "address",
          "name": "to",
          "type": "address"
        },
        {
          "internalType": "uint256",
          "name": "tokenId",
          "type": "uint256"
        }
      ],
      "name": "approve",
      "outputs": [],
      "stateMutability": "nonpayable",
      "type": "function"
    },
    {
      "inputs": [
        {
          "internalType": "address",
          "name": "owner",
          "type": "address"
        }
      ],
      "name": "balanceOf",
      "outputs": [
        {
          "internalType": "uint256",
          "name": "",
          "type": "uint256"
        }
      ],
      "stateMutability": "view",
      "type": "function"
    },
    {
      "inputs": [
        {
          "internalType": "string",
          "name": "",
          "type": "string"
        }
      ],
      "name": "domains",
      "outputs": [
        {
          "internalType": "address",
          "name": "",
          "type": "address"
        }
      ],
      "stateMutability": "view",
      "type": "function"
    },
    {
      "inputs": [
        {
          "internalType": "string",
          "name": "name",
          "type": "string"
        }
      ],
      "name": "getAddress",
      "outputs": [
        {
          "internalType": "address",
          "name": "",
          "type": "address"
        }
      ],
      "stateMutability": "view",
      "type": "function"
    },
    {
      "inputs": [],
      "name": "getAllNames",
      "outputs": [
        {
          "internalType": "string[]",
          "name": "",
          "type": "string[]"
        }
      ],
      "stateMutability": "view",
      "type": "function"
    },
    {
      "inputs": [
        {
          "internalType": "uint256",
          "name": "tokenId",
          "type": "uint256"
        }
      ],
      "name": "getApproved",
      "outputs": [
        {
          "internalType": "address",
          "name": "",
          "type": "address"
        }
      ],
      "stateMutability": "view",
      "type": "function"
    },
    {
      "inputs": [
        {
          "internalType": "string",
          "name": "name",
          "type": "string"
        }
      ],
      "name": "getRecord",
      "outputs": [
        {
          "components": [
            {
              "internalType": "string",
              "name": "username",
              "type": "string"
            },
            {
              "internalType": "string",
              "name": "github",
              "type": "string"
            },
            {
              "internalType": "string",
              "name": "email",
              "type": "string"
            },
            {
              "internalType": "string",
              "name": "twitter",
              "type": "string"
            },
            {
              "internalType": "string",
              "name": "website",
              "type": "string"
            }
          ],
          "internalType": "struct DomainData",
          "name": "",
          "type": "tuple"
        }
      ],
      "stateMutability": "view",
      "type": "function"
    },
    {
      "inputs": [
        {
          "internalType": "address",
          "name": "owner",
          "type": "address"
        },
        {
          "internalType": "address",
          "name": "operator",
          "type": "address"
        }
      ],
      "name": "isApprovedForAll",
      "outputs": [
        {
          "internalType": "bool",
          "name": "",
          "type": "bool"
        }
      ],
      "stateMutability": "view",
      "type": "function"
    },
    {
      "inputs": [],
      "name": "isOwner",
      "outputs": [
        {
          "internalType": "bool",
          "name": "",
          "type": "bool"
        }
      ],
      "stateMutability": "view",
      "type": "function"
    },
    {
      "inputs": [],
      "name": "name",
      "outputs": [
        {
          "internalType": "string",
          "name": "",
          "type": "string"
        }
      ],
      "stateMutability": "view",
      "type": "function"
    },
    {
      "inputs": [
        {
          "internalType": "uint256",
          "name": "",
          "type": "uint256"
        }
      ],
      "name": "names",
      "outputs": [
        {
          "internalType": "string",
          "name": "",
          "type": "string"
        }
      ],
      "stateMutability": "view",
      "type": "function"
    },
    {
      "inputs": [],
      "name": "owner",
      "outputs": [
        {
          "internalType": "address payable",
          "name": "",
          "type": "address"
        }
      ],
      "stateMutability": "view",
      "type": "function"
    },
    {
      "inputs": [
        {
          "internalType": "uint256",
          "name": "tokenId",
          "type": "uint256"
        }
      ],
      "name": "ownerOf",
      "outputs": [
        {
          "internalType": "address",
          "name": "",
          "type": "address"
        }
      ],
      "stateMutability": "view",
      "type": "function"
    },
    {
      "inputs": [
        {
          "internalType": "string",
          "name": "name",
          "type": "string"
        }
      ],
      "name": "price",
      "outputs": [
        {
          "internalType": "uint256",
          "name": "",
          "type": "uint256"
        }
      ],
      "stateMutability": "pure",
      "type": "function"
    },
    {
      "inputs": [
        {
          "internalType": "string",
          "name": "",
          "type": "string"
        }
      ],
      "name": "records",
      "outputs": [
        {
          "internalType": "string",
          "name": "username",
          "type": "string"
        },
        {
          "internalType": "string",
          "name": "github",
          "type": "string"
        },
        {
          "internalType": "string",
          "name": "email",
          "type": "string"
        },
        {
          "internalType": "string",
          "name": "twitter",
          "type": "string"
        },
        {
          "internalType": "string",
          "name": "website",
          "type": "string"
        }
      ],
      "stateMutability": "view",
      "type": "function"
    },
    {
      "inputs": [
        {
          "internalType": "string",
          "name": "name",
          "type": "string"
        }
      ],
      "name": "register",
      "outputs": [],
      "stateMutability": "payable",
      "type": "function"
    },
    {
      "inputs": [
        {
          "internalType": "address",
          "name": "from",
          "type": "address"
        },
        {
          "internalType": "address",
          "name": "to",
          "type": "address"
        },
        {
          "internalType": "uint256",
          "name": "tokenId",
          "type": "uint256"
        }
      ],
      "name": "safeTransferFrom",
      "outputs": [],
      "stateMutability": "nonpayable",
      "type": "function"
    },
    {
      "inputs": [
        {
          "internalType": "address",
          "name": "from",
          "type": "address"
        },
        {
          "internalType": "address",
          "name": "to",
          "type": "address"
        },
        {
          "internalType": "uint256",
          "name": "tokenId",
          "type": "uint256"
        },
        {
          "internalType": "bytes",
          "name": "_data",
          "type": "bytes"
        }
      ],
      "name": "safeTransferFrom",
      "outputs": [],
      "stateMutability": "nonpayable",
      "type": "function"
    },
    {
      "inputs": [
        {
          "internalType": "address",
          "name": "operator",
          "type": "address"
        },
        {
          "internalType": "bool",
          "name": "approved",
          "type": "bool"
        }
      ],
      "name": "setApprovalForAll",
      "outputs": [],
      "stateMutability": "nonpayable",
      "type": "function"
    },
    {
      "inputs": [
        {
          "internalType": "string",
          "name": "name",
          "type": "string"
        },
        {
          "components": [
            {
              "internalType": "string",
              "name": "username",
              "type": "string"
            },
            {
              "internalType": "string",
              "name": "github",
              "type": "string"
            },
            {
              "internalType": "string",
              "name": "email",
              "type": "string"
            },
            {
              "internalType": "string",
              "name": "twitter",
              "type": "string"
            },
            {
              "internalType": "string",
              "name": "website",
              "type": "string"
            }
          ],
          "internalType": "struct DomainData",
          "name": "value",
          "type": "tuple"
        }
      ],
      "name": "setRecord",
      "outputs": [],
      "stateMutability": "nonpayable",
      "type": "function"
    },
    {
      "inputs": [
        {
          "internalType": "bytes4",
          "name": "interfaceId",
          "type": "bytes4"
        }
      ],
      "name": "supportsInterface",
      "outputs": [
        {
          "internalType": "bool",
          "name": "",
          "type": "bool"
        }
      ],
      "stateMutability": "view",
      "type": "function"
    },
    {
      "inputs": [],
      "name": "symbol",
      "outputs": [
        {
          "internalType": "string",
          "name": "",
          "type": "string"
        }
      ],
      "stateMutability": "view",
      "type": "function"
    },
    {
      "inputs": [],
      "name": "tld",
      "outputs": [
        {
          "internalType": "string",
          "name": "",
          "type": "string"
        }
      ],
      "stateMutability": "view",
      "type": "function"
    },
    {
      "inputs": [
        {
          "internalType": "uint256",
          "name": "tokenId",
          "type": "uint256"
        }
      ],
      "name": "tokenURI",
      "outputs": [
        {
          "internalType": "string",
          "name": "",
          "type": "string"
        }
      ],
      "stateMutability": "view",
      "type": "function"
    },
    {
      "inputs": [
        {
          "internalType": "address",
          "name": "from",
          "type": "address"
        },
        {
          "internalType": "address",
          "name": "to",
          "type": "address"
        },
        {
          "internalType": "uint256",
          "name": "tokenId",
          "type": "uint256"
        }
      ],
      "name": "transferFrom",
      "outputs": [],
      "stateMutability": "nonpayable",
      "type": "function"
    },
    {
      "inputs": [
        {
          "internalType": "string",
          "name": "name",
          "type": "string"
        }
      ],
      "name": "valid",
      "outputs": [
        {
          "internalType": "bool",
          "name": "",
          "type": "bool"
        }
      ],
      "stateMutability": "pure",
      "type": "function"
    },
    {
      "inputs": [],
      "name": "withdraw",
      "outputs": [],
      "stateMutability": "nonpayable",
      "type": "function"
    }
  ],
  "bytecode": "0x6080604052604051806108a0016040528061086b815260200162005e5561086b91396009908051906020019062000038929190620002a8565b506040518060400160405280600d81526020017f3c2f746578743e3c2f7376673e00000000000000000000000000000000000000815250600a908051906020019062000086929190620002a8565b50604051620066c0380380620066c08339818101604052810190620000ac9190620004f5565b6040518060400160405280601281526020017f506f67204e616d696e67205365727669636500000000000000000000000000008152506040518060400160405280600381526020017f504f470000000000000000000000000000000000000000000000000000000000815250816000908051906020019062000130929190620002a8565b50806001908051906020019062000149929190620002a8565b50505033600e60006101000a81548173ffffffffffffffffffffffffffffffffffffffff021916908373ffffffffffffffffffffffffffffffffffffffff1602179055508060089080519060200190620001a5929190620002a8565b50620001d560405180606001604052806024815260200162005e3160249139620001dc60201b620020b51760201c565b506200062c565b6200027c81604051602401620001f39190620005a3565b6040516020818303038152906040527f41304fac000000000000000000000000000000000000000000000000000000007bffffffffffffffffffffffffffffffffffffffffffffffffffffffff19166020820180517bffffffffffffffffffffffffffffffffffffffffffffffffffffffff83818316178352505050506200027f60201b60201c565b50565b60008151905060006a636f6e736f6c652e6c6f679050602083016000808483855afa5050505050565b828054620002b690620005f6565b90600052602060002090601f016020900481019282620002da576000855562000326565b82601f10620002f557805160ff191683800117855562000326565b8280016001018555821562000326579182015b828111156200032557825182559160200191906001019062000308565b5b50905062000335919062000339565b5090565b5b80821115620003545760008160009055506001016200033a565b5090565b6000604051905090565b600080fd5b600080fd5b600080fd5b600080fd5b6000601f19601f8301169050919050565b7f4e487b7100000000000000000000000000000000000000000000000000000000600052604160045260246000fd5b620003c18262000376565b810181811067ffffffffffffffff82111715620003e357620003e262000387565b5b80604052505050565b6000620003f862000358565b9050620004068282620003b6565b919050565b600067ffffffffffffffff82111562000429576200042862000387565b5b620004348262000376565b9050602081019050919050565b60005b838110156200046157808201518184015260208101905062000444565b8381111562000471576000848401525b50505050565b60006200048e62000488846200040b565b620003ec565b905082815260208101848484011115620004ad57620004ac62000371565b5b620004ba84828562000441565b509392505050565b600082601f830112620004da57620004d96200036c565b5b8151620004ec84826020860162000477565b91505092915050565b6000602082840312156200050e576200050d62000362565b5b600082015167ffffffffffffffff8111156200052f576200052e62000367565b5b6200053d84828501620004c2565b91505092915050565b600081519050919050565b600082825260208201905092915050565b60006200056f8262000546565b6200057b818562000551565b93506200058d81856020860162000441565b620005988162000376565b840191505092915050565b60006020820190508181036000830152620005bf818462000562565b905092915050565b7f4e487b7100000000000000000000000000000000000000000000000000000000600052602260045260246000fd5b600060028204905060018216806200060f57607f821691505b60208210811415620006265762000625620005c7565b5b50919050565b6157f5806200063c6000396000f3fe60806040526004361061019c5760003560e01c80636352211e116100ec578063b88d4fde1161008a578063e985e9c511610064578063e985e9c514610628578063f2c298be14610665578063fb825e5f14610681578063fe2c6198146106ac5761019c565b8063b88d4fde14610585578063bf40fac1146105ae578063c87b56dd146105eb5761019c565b80638f32d59b116100c65780638f32d59b146104c957806395d89b41146104f45780639791c0971461051f578063a22cb4651461055c5761019c565b80636352211e1461042457806370a08231146104615780638da5cb5b1461049e5761019c565b8063264492351161015957806342842e0e1161013357806342842e0e146103545780634622ab031461037d578063541e771d146103ba5780635cded8e0146103fb5761019c565b806326449235146102d55780632d551432146103125780633ccfd60b1461033d5761019c565b806301ffc9a7146101a157806306fdde03146101de578063081812fc14610209578063095ea7b31461024657806311dd88451461026f57806323b872dd146102ac575b600080fd5b3480156101ad57600080fd5b506101c860048036038101906101c39190613665565b6106e9565b6040516101d591906136ad565b60405180910390f35b3480156101ea57600080fd5b506101f36107cb565b6040516102009190613761565b60405180910390f35b34801561021557600080fd5b50610230600480360381019061022b91906137b9565b61085d565b60405161023d9190613827565b60405180910390f35b34801561025257600080fd5b5061026d6004803603810190610268919061386e565b6108e2565b005b34801561027b57600080fd5b5061029660048036038101906102919190613913565b6109fa565b6040516102a39190613a3c565b60405180910390f35b3480156102b857600080fd5b506102d360048036038101906102ce9190613a5e565b610d0f565b005b3480156102e157600080fd5b506102fc60048036038101906102f79190613be1565b610d6f565b6040516103099190613827565b60405180910390f35b34801561031e57600080fd5b50610327610db8565b6040516103349190613761565b60405180910390f35b34801561034957600080fd5b50610352610e46565b005b34801561036057600080fd5b5061037b60048036038101906103769190613a5e565b610f0c565b005b34801561038957600080fd5b506103a4600480360381019061039f91906137b9565b610f2c565b6040516103b19190613761565b60405180910390f35b3480156103c657600080fd5b506103e160048036038101906103dc9190613be1565b610fcc565b6040516103f2959493929190613c2a565b60405180910390f35b34801561040757600080fd5b50610422600480360381019061041d9190613cc4565b6112c0565b005b34801561043057600080fd5b5061044b600480360381019061044691906137b9565b61139a565b6040516104589190613827565b60405180910390f35b34801561046d57600080fd5b5061048860048036038101906104839190613d40565b61144c565b6040516104959190613d7c565b60405180910390f35b3480156104aa57600080fd5b506104b3611504565b6040516104c09190613db8565b60405180910390f35b3480156104d557600080fd5b506104de61152a565b6040516104eb91906136ad565b60405180910390f35b34801561050057600080fd5b50610509611582565b6040516105169190613761565b60405180910390f35b34801561052b57600080fd5b5061054660048036038101906105419190613913565b611614565b60405161055391906136ad565b60405180910390f35b34801561056857600080fd5b50610583600480360381019061057e9190613dff565b6116c8565b005b34801561059157600080fd5b506105ac60048036038101906105a79190613ee0565b6116de565b005b3480156105ba57600080fd5b506105d560048036038101906105d09190613913565b611740565b6040516105e29190613827565b60405180910390f35b3480156105f757600080fd5b50610612600480360381019061060d91906137b9565b61178b565b60405161061f9190613761565b60405180910390f35b34801561063457600080fd5b5061064f600480360381019061064a9190613f63565b6118dd565b60405161065c91906136ad565b60405180910390f35b61067f600480360381019061067a9190613913565b611971565b005b34801561068d57600080fd5b50610696611e2e565b6040516106a39190614065565b60405180910390f35b3480156106b857600080fd5b506106d360048036038101906106ce9190613913565b61200c565b6040516106e09190613d7c565b60405180910390f35b60007f80ac58cd000000000000000000000000000000000000000000000000000000007bffffffffffffffffffffffffffffffffffffffffffffffffffffffff1916827bffffffffffffffffffffffffffffffffffffffffffffffffffffffff191614806107b457507f5b5e139f000000000000000000000000000000000000000000000000000000007bffffffffffffffffffffffffffffffffffffffffffffffffffffffff1916827bffffffffffffffffffffffffffffffffffffffffffffffffffffffff1916145b806107c457506107c38261214e565b5b9050919050565b6060600080546107da906140b6565b80601f0160208091040260200160405190810160405280929190818152602001828054610806906140b6565b80156108535780601f1061082857610100808354040283529160200191610853565b820191906000526020600020905b81548152906001019060200180831161083657829003601f168201915b5050505050905090565b6000610868826121b8565b6108a7576040517f08c379a000000000000000000000000000000000000000000000000000000000815260040161089e9061415a565b60405180910390fd5b6004600083815260200190815260200160002060009054906101000a900473ffffffffffffffffffffffffffffffffffffffff169050919050565b60006108ed8261139a565b90508073ffffffffffffffffffffffffffffffffffffffff168373ffffffffffffffffffffffffffffffffffffffff16141561095e576040517f08c379a0000000000000000000000000000000000000000000000000000000008152600401610955906141ec565b60405180910390fd5b8073ffffffffffffffffffffffffffffffffffffffff1661097d612224565b73ffffffffffffffffffffffffffffffffffffffff1614806109ac57506109ab816109a6612224565b6118dd565b5b6109eb576040517f08c379a00000000000000000000000000000000000000000000000000000000081526004016109e29061427e565b60405180910390fd5b6109f5838361222c565b505050565b610a026134a1565b600c8383604051610a149291906142ce565b90815260200160405180910390206040518060a0016040529081600082018054610a3d906140b6565b80601f0160208091040260200160405190810160405280929190818152602001828054610a69906140b6565b8015610ab65780601f10610a8b57610100808354040283529160200191610ab6565b820191906000526020600020905b815481529060010190602001808311610a9957829003601f168201915b50505050508152602001600182018054610acf906140b6565b80601f0160208091040260200160405190810160405280929190818152602001828054610afb906140b6565b8015610b485780601f10610b1d57610100808354040283529160200191610b48565b820191906000526020600020905b815481529060010190602001808311610b2b57829003601f168201915b50505050508152602001600282018054610b61906140b6565b80601f0160208091040260200160405190810160405280929190818152602001828054610b8d906140b6565b8015610bda5780601f10610baf57610100808354040283529160200191610bda565b820191906000526020600020905b815481529060010190602001808311610bbd57829003601f168201915b50505050508152602001600382018054610bf3906140b6565b80601f0160208091040260200160405190810160405280929190818152602001828054610c1f906140b6565b8015610c6c5780601f10610c4157610100808354040283529160200191610c6c565b820191906000526020600020905b815481529060010190602001808311610c4f57829003601f168201915b50505050508152602001600482018054610c85906140b6565b80601f0160208091040260200160405190810160405280929190818152602001828054610cb1906140b6565b8015610cfe5780601f10610cd357610100808354040283529160200191610cfe565b820191906000526020600020905b815481529060010190602001808311610ce157829003601f168201915b505050505081525050905092915050565b610d20610d1a612224565b826122e5565b610d5f576040517f08c379a0000000000000000000000000000000000000000000000000000000008152600401610d5690614359565b60405180910390fd5b610d6a8383836123c3565b505050565b600b818051602081018201805184825260208301602085012081835280955050505050506000915054906101000a900473ffffffffffffffffffffffffffffffffffffffff1681565b60088054610dc5906140b6565b80601f0160208091040260200160405190810160405280929190818152602001828054610df1906140b6565b8015610e3e5780601f10610e1357610100808354040283529160200191610e3e565b820191906000526020600020905b815481529060010190602001808311610e2157829003601f168201915b505050505081565b610e4e61152a565b610e5757600080fd5b600047905060003373ffffffffffffffffffffffffffffffffffffffff1682604051610e82906143aa565b60006040518083038185875af1925050503d8060008114610ebf576040519150601f19603f3d011682016040523d82523d6000602084013e610ec4565b606091505b5050905080610f08576040517f08c379a0000000000000000000000000000000000000000000000000000000008152600401610eff9061440b565b60405180910390fd5b5050565b610f27838383604051806020016040528060008152506116de565b505050565b600d6020528060005260406000206000915090508054610f4b906140b6565b80601f0160208091040260200160405190810160405280929190818152602001828054610f77906140b6565b8015610fc45780601f10610f9957610100808354040283529160200191610fc4565b820191906000526020600020905b815481529060010190602001808311610fa757829003601f168201915b505050505081565b600c81805160208101820180518482526020830160208501208183528095505050505050600091509050806000018054611005906140b6565b80601f0160208091040260200160405190810160405280929190818152602001828054611031906140b6565b801561107e5780601f106110535761010080835404028352916020019161107e565b820191906000526020600020905b81548152906001019060200180831161106157829003601f168201915b505050505090806001018054611093906140b6565b80601f01602080910402602001604051908101604052809291908181526020018280546110bf906140b6565b801561110c5780601f106110e15761010080835404028352916020019161110c565b820191906000526020600020905b8154815290600101906020018083116110ef57829003601f168201915b505050505090806002018054611121906140b6565b80601f016020809104026020016040519081016040528092919081815260200182805461114d906140b6565b801561119a5780601f1061116f5761010080835404028352916020019161119a565b820191906000526020600020905b81548152906001019060200180831161117d57829003601f168201915b5050505050908060030180546111af906140b6565b80601f01602080910402602001604051908101604052809291908181526020018280546111db906140b6565b80156112285780601f106111fd57610100808354040283529160200191611228565b820191906000526020600020905b81548152906001019060200180831161120b57829003601f168201915b50505050509080600401805461123d906140b6565b80601f0160208091040260200160405190810160405280929190818152602001828054611269906140b6565b80156112b65780601f1061128b576101008083540402835291602001916112b6565b820191906000526020600020905b81548152906001019060200180831161129957829003601f168201915b5050505050905085565b600b83836040516112d29291906142ce565b908152602001604051809103902060009054906101000a900473ffffffffffffffffffffffffffffffffffffffff1673ffffffffffffffffffffffffffffffffffffffff163373ffffffffffffffffffffffffffffffffffffffff1614611365576040517f82b4290000000000000000000000000000000000000000000000000000000000815260040160405180910390fd5b80600c84846040516113789291906142ce565b9081526020016040518091039020818161139291906147dd565b905050505050565b6000806002600084815260200190815260200160002060009054906101000a900473ffffffffffffffffffffffffffffffffffffffff169050600073ffffffffffffffffffffffffffffffffffffffff168173ffffffffffffffffffffffffffffffffffffffff161415611443576040517f08c379a000000000000000000000000000000000000000000000000000000000815260040161143a9061485d565b60405180910390fd5b80915050919050565b60008073ffffffffffffffffffffffffffffffffffffffff168273ffffffffffffffffffffffffffffffffffffffff1614156114bd576040517f08c379a00000000000000000000000000000000000000000000000000000000081526004016114b4906148ef565b60405180910390fd5b600360008373ffffffffffffffffffffffffffffffffffffffff1673ffffffffffffffffffffffffffffffffffffffff168152602001908152602001600020549050919050565b600e60009054906101000a900473ffffffffffffffffffffffffffffffffffffffff1681565b6000600e60009054906101000a900473ffffffffffffffffffffffffffffffffffffffff1673ffffffffffffffffffffffffffffffffffffffff163373ffffffffffffffffffffffffffffffffffffffff1614905090565b606060018054611591906140b6565b80601f01602080910402602001604051908101604052809291908181526020018280546115bd906140b6565b801561160a5780601f106115df5761010080835404028352916020019161160a565b820191906000526020600020905b8154815290600101906020018083116115ed57829003601f168201915b5050505050905090565b6000600361166584848080601f016020809104026020016040519081016040528093929190818152602001838380828437600081840152601f19601f8201169050808301925050505050505061262a565b101580156116c05750600a6116bd84848080601f016020809104026020016040519081016040528093929190818152602001838380828437600081840152601f19601f8201169050808301925050505050505061262a565b11155b905092915050565b6116da6116d3612224565b83836127df565b5050565b6116ef6116e9612224565b836122e5565b61172e576040517f08c379a000000000000000000000000000000000000000000000000000000000815260040161172590614359565b60405180910390fd5b61173a8484848461294c565b50505050565b6000600b83836040516117549291906142ce565b908152602001604051809103902060009054906101000a900473ffffffffffffffffffffffffffffffffffffffff16905092915050565b6060611796826121b8565b6117d5576040517f08c379a00000000000000000000000000000000000000000000000000000000081526004016117cc90614981565b60405180910390fd5b60006006600084815260200190815260200160002080546117f5906140b6565b80601f0160208091040260200160405190810160405280929190818152602001828054611821906140b6565b801561186e5780601f106118435761010080835404028352916020019161186e565b820191906000526020600020905b81548152906001019060200180831161185157829003601f168201915b50505050509050600061187f6129a8565b90506000815114156118955781925050506118d8565b6000825111156118ca5780826040516020016118b29291906149d2565b604051602081830303815290604052925050506118d8565b6118d3846129bf565b925050505b919050565b6000600560008473ffffffffffffffffffffffffffffffffffffffff1673ffffffffffffffffffffffffffffffffffffffff16815260200190815260200160002060008373ffffffffffffffffffffffffffffffffffffffff1673ffffffffffffffffffffffffffffffffffffffff16815260200190815260200160002060009054906101000a900460ff16905092915050565b600073ffffffffffffffffffffffffffffffffffffffff16600b838360405161199b9291906142ce565b908152602001604051809103902060009054906101000a900473ffffffffffffffffffffffffffffffffffffffff1673ffffffffffffffffffffffffffffffffffffffff1614611a17576040517f3a81d6fc00000000000000000000000000000000000000000000000000000000815260040160405180910390fd5b611a218282611614565b611a645781816040517f7f19f48d000000000000000000000000000000000000000000000000000000008152600401611a5b929190614a23565b60405180910390fd5b6000611a70838361200c565b905080341015611ab5576040517f08c379a0000000000000000000000000000000000000000000000000000000008152600401611aac90614a93565b60405180910390fd5b600083836008604051602001611acd93929190614b7e565b60405160208183030381529060405290506000600982600a604051602001611af793929190614baf565b60405160208183030381529060405290506000611b146007612a66565b90506000611b6587878080601f016020809104026020016040519081016040528093929190818152602001838380828437600081840152601f19601f8201169050808301925050505050505061262a565b90506000611b7282612a74565b9050611c666040518060600160405280603181526020016157166031913989898080601f016020809104026020016040519081016040528093929190818152602001838380828437600081840152601f19601f8201169050808301925050505050505060088054611be2906140b6565b80601f0160208091040260200160405190810160405280929190818152602001828054611c0e906140b6565b8015611c5b5780601f10611c3057610100808354040283529160200191611c5b565b820191906000526020600020905b815481529060010190602001808311611c3e57829003601f168201915b505050505086612bd5565b6000611c9c86611c7587612c77565b84604051602001611c8893929190614d5c565b604051602081830303815290604052612c77565b9050600081604051602001611cb19190614e05565b6040516020818303038152906040529050611ce36040518060600160405280603981526020016156dd603991396120b5565b611d226040518060400160405280600e81526020017f46696e616c20746f6b656e55524900000000000000000000000000000000000081525082612e0f565b611d43604051806060016040528060398152602001615747603991396120b5565b611d4d3386612eab565b611d578582612ec9565b33600b8b8b604051611d6a9291906142ce565b908152602001604051809103902060006101000a81548173ffffffffffffffffffffffffffffffffffffffff021916908373ffffffffffffffffffffffffffffffffffffffff160217905550611df56040518060400160405280601b81526020017f2573206861732072656769737465726564206120646f6d61696e21000000000081525033612f3d565b611dff6007612fd9565b8989600d60008881526020019081526020016000209190611e219291906134d0565b5050505050505050505050565b6060611e6e6040518060400160405280601f81526020017f47657474696e6720616c6c206e616d65732066726f6d20636f6e7472616374008152506120b5565b6000611e7a6007612a66565b67ffffffffffffffff811115611e9357611e92613ab6565b5b604051908082528060200260200182016040528015611ec657816020015b6060815260200190600190039081611eb15790505b50905060005b611ed66007612a66565b81101561200457600d60008281526020019081526020016000208054611efb906140b6565b80601f0160208091040260200160405190810160405280929190818152602001828054611f27906140b6565b8015611f745780601f10611f4957610100808354040283529160200191611f74565b820191906000526020600020905b815481529060010190602001808311611f5757829003601f168201915b5050505050828281518110611f8c57611f8b614e27565b5b6020026020010181905250611ff16040518060400160405280601781526020017f4e616d6520666f7220746f6b656e20256420697320257300000000000000000081525082848481518110611fe457611fe3614e27565b5b6020026020010151612fef565b8080611ffc90614e85565b915050611ecc565b508091505090565b60008061205c84848080601f016020809104026020016040519081016040528093929190818152602001838380828437600081840152601f19601f8201169050808301925050505050505061262a565b90506120688484611614565b61207157600080fd5b600381141561208a5766b1a2bc2ec500009150506120af565b60048114156120a357666a94d74f4300009150506120af565b662386f26fc100009150505b92915050565b61214b816040516024016120c99190613761565b6040516020818303038152906040527f41304fac000000000000000000000000000000000000000000000000000000007bffffffffffffffffffffffffffffffffffffffffffffffffffffffff19166020820180517bffffffffffffffffffffffffffffffffffffffffffffffffffffffff838183161783525050505061308e565b50565b60007f01ffc9a7000000000000000000000000000000000000000000000000000000007bffffffffffffffffffffffffffffffffffffffffffffffffffffffff1916827bffffffffffffffffffffffffffffffffffffffffffffffffffffffff1916149050919050565b60008073ffffffffffffffffffffffffffffffffffffffff166002600084815260200190815260200160002060009054906101000a900473ffffffffffffffffffffffffffffffffffffffff1673ffffffffffffffffffffffffffffffffffffffff1614159050919050565b600033905090565b816004600083815260200190815260200160002060006101000a81548173ffffffffffffffffffffffffffffffffffffffff021916908373ffffffffffffffffffffffffffffffffffffffff160217905550808273ffffffffffffffffffffffffffffffffffffffff1661229f8361139a565b73ffffffffffffffffffffffffffffffffffffffff167f8c5be1e5ebec7d5bd14f71427d1e84f3dd0314c0f7b2291e5b200ac8c7c3b92560405160405180910390a45050565b60006122f0826121b8565b61232f576040517f08c379a000000000000000000000000000000000000000000000000000000000815260040161232690614f40565b60405180910390fd5b600061233a8361139a565b90508073ffffffffffffffffffffffffffffffffffffffff168473ffffffffffffffffffffffffffffffffffffffff16148061237c575061237b81856118dd565b5b806123ba57508373ffffffffffffffffffffffffffffffffffffffff166123a28461085d565b73ffffffffffffffffffffffffffffffffffffffff16145b91505092915050565b8273ffffffffffffffffffffffffffffffffffffffff166123e38261139a565b73ffffffffffffffffffffffffffffffffffffffff1614612439576040517f08c379a000000000000000000000000000000000000000000000000000000000815260040161243090614fd2565b60405180910390fd5b600073ffffffffffffffffffffffffffffffffffffffff168273ffffffffffffffffffffffffffffffffffffffff1614156124a9576040517f08c379a00000000000000000000000000000000000000000000000000000000081526004016124a090615064565b60405180910390fd5b6124b48383836130b7565b6124bf60008261222c565b6001600360008573ffffffffffffffffffffffffffffffffffffffff1673ffffffffffffffffffffffffffffffffffffffff168152602001908152602001600020600082825461250f9190615084565b925050819055506001600360008473ffffffffffffffffffffffffffffffffffffffff1673ffffffffffffffffffffffffffffffffffffffff168152602001908152602001600020600082825461256691906150b8565b92505081905550816002600083815260200190815260200160002060006101000a81548173ffffffffffffffffffffffffffffffffffffffff021916908373ffffffffffffffffffffffffffffffffffffffff160217905550808273ffffffffffffffffffffffffffffffffffffffff168473ffffffffffffffffffffffffffffffffffffffff167fddf252ad1be2c89b69c2b068fc378daa952ba7f163c4a11628f55a4df523b3ef60405160405180910390a46126258383836130bc565b505050565b60008060008084519050600092505b808210156127d457600085838151811061265657612655614e27565b5b602001015160f81c60f81b9050608060f81b817effffffffffffffffffffffffffffffffffffffffffffffffffffffffffffff191610156126a55760018361269e91906150b8565b92506127c0565b60e060f81b817effffffffffffffffffffffffffffffffffffffffffffffffffffffffffffff191610156126e7576002836126e091906150b8565b92506127bf565b60f060f81b817effffffffffffffffffffffffffffffffffffffffffffffffffffffffffffff191610156127295760038361272291906150b8565b92506127be565b60f8801b817effffffffffffffffffffffffffffffffffffffffffffffffffffffffffffff1916101561276a5760048361276391906150b8565b92506127bd565b60fc60f81b817effffffffffffffffffffffffffffffffffffffffffffffffffffffffffffff191610156127ac576005836127a591906150b8565b92506127bc565b6006836127b991906150b8565b92505b5b5b5b5b5082806127cc90614e85565b935050612639565b829350505050919050565b8173ffffffffffffffffffffffffffffffffffffffff168373ffffffffffffffffffffffffffffffffffffffff16141561284e576040517f08c379a00000000000000000000000000000000000000000000000000000000081526004016128459061515a565b60405180910390fd5b80600560008573ffffffffffffffffffffffffffffffffffffffff1673ffffffffffffffffffffffffffffffffffffffff16815260200190815260200160002060008473ffffffffffffffffffffffffffffffffffffffff1673ffffffffffffffffffffffffffffffffffffffff16815260200190815260200160002060006101000a81548160ff0219169083151502179055508173ffffffffffffffffffffffffffffffffffffffff168373ffffffffffffffffffffffffffffffffffffffff167f17307eab39ab6107e8899845ad3d59bd9653f200f220920489ca2b5937696c318360405161293f91906136ad565b60405180910390a3505050565b6129578484846123c3565b612963848484846130c1565b6129a2576040517f08c379a0000000000000000000000000000000000000000000000000000000008152600401612999906151ec565b60405180910390fd5b50505050565b606060405180602001604052806000815250905090565b60606129ca826121b8565b612a09576040517f08c379a0000000000000000000000000000000000000000000000000000000008152600401612a009061527e565b60405180910390fd5b6000612a136129a8565b90506000815111612a335760405180602001604052806000815250612a5e565b80612a3d84612a74565b604051602001612a4e9291906149d2565b6040516020818303038152906040525b915050919050565b600081600001549050919050565b60606000821415612abc576040518060400160405280600181526020017f30000000000000000000000000000000000000000000000000000000000000008152509050612bd0565b600082905060005b60008214612aee578080612ad790614e85565b915050600a82612ae791906152cd565b9150612ac4565b60008167ffffffffffffffff811115612b0a57612b09613ab6565b5b6040519080825280601f01601f191660200182016040528015612b3c5781602001600182028036833780820191505090505b5090505b60008514612bc957600182612b559190615084565b9150600a85612b6491906152fe565b6030612b7091906150b8565b60f81b818381518110612b8657612b85614e27565b5b60200101907effffffffffffffffffffffffffffffffffffffffffffffffffffffffffffff1916908160001a905350600a85612bc291906152cd565b9450612b40565b8093505050505b919050565b612c7184848484604051602401612bef949392919061532f565b6040516020818303038152906040527f9fd009f5000000000000000000000000000000000000000000000000000000007bffffffffffffffffffffffffffffffffffffffffffffffffffffffff19166020820180517bffffffffffffffffffffffffffffffffffffffffffffffffffffffff838183161783525050505061308e565b50505050565b60606000825190506000811415612ca05760405180602001604052806000815250915050612e0a565b60006003600283612cb191906150b8565b612cbb91906152cd565b6004612cc79190615389565b90506000602082612cd891906150b8565b67ffffffffffffffff811115612cf157612cf0613ab6565b5b6040519080825280601f01601f191660200182016040528015612d235781602001600182028036833780820191505090505b5090506000604051806060016040528060408152602001615780604091399050600181016020830160005b86811015612dc75760038101905062ffffff818a015116603f8160121c168401518060081b905060ff603f83600c1c1686015116810190508060081b905060ff603f8360061c1686015116810190508060081b905060ff603f831686015116810190508060e01b90508084526004840193505050612d4e565b506003860660018114612de15760028114612df157612dfc565b613d3d60f01b6002830352612dfc565b603d60f81b60018303525b508484525050819450505050505b919050565b612ea78282604051602401612e259291906153e3565b6040516020818303038152906040527f4b5c4277000000000000000000000000000000000000000000000000000000007bffffffffffffffffffffffffffffffffffffffffffffffffffffffff19166020820180517bffffffffffffffffffffffffffffffffffffffffffffffffffffffff838183161783525050505061308e565b5050565b612ec5828260405180602001604052806000815250613249565b5050565b612ed2826121b8565b612f11576040517f08c379a0000000000000000000000000000000000000000000000000000000008152600401612f089061548c565b60405180910390fd5b80600660008481526020019081526020016000209080519060200190612f38929190613556565b505050565b612fd58282604051602401612f539291906154ac565b6040516020818303038152906040527f319af333000000000000000000000000000000000000000000000000000000007bffffffffffffffffffffffffffffffffffffffffffffffffffffffff19166020820180517bffffffffffffffffffffffffffffffffffffffffffffffffffffffff838183161783525050505061308e565b5050565b6001816000016000828254019250508190555050565b613089838383604051602401613007939291906154dc565b6040516020818303038152906040527fa3f5c739000000000000000000000000000000000000000000000000000000007bffffffffffffffffffffffffffffffffffffffffffffffffffffffff19166020820180517bffffffffffffffffffffffffffffffffffffffffffffffffffffffff838183161783525050505061308e565b505050565b60008151905060006a636f6e736f6c652e6c6f679050602083016000808483855afa5050505050565b505050565b505050565b60006130e28473ffffffffffffffffffffffffffffffffffffffff166132a4565b1561323c578373ffffffffffffffffffffffffffffffffffffffff1663150b7a0261310b612224565b8786866040518563ffffffff1660e01b815260040161312d9493929190615576565b6020604051808303816000875af192505050801561316957506040513d601f19601f8201168201806040525081019061316691906155d7565b60015b6131ec573d8060008114613199576040519150601f19603f3d011682016040523d82523d6000602084013e61319e565b606091505b506000815114156131e4576040517f08c379a00000000000000000000000000000000000000000000000000000000081526004016131db906151ec565b60405180910390fd5b805181602001fd5b63150b7a0260e01b7bffffffffffffffffffffffffffffffffffffffffffffffffffffffff1916817bffffffffffffffffffffffffffffffffffffffffffffffffffffffff191614915050613241565b600190505b949350505050565b61325383836132c7565b61326060008484846130c1565b61329f576040517f08c379a0000000000000000000000000000000000000000000000000000000008152600401613296906151ec565b60405180910390fd5b505050565b6000808273ffffffffffffffffffffffffffffffffffffffff163b119050919050565b600073ffffffffffffffffffffffffffffffffffffffff168273ffffffffffffffffffffffffffffffffffffffff161415613337576040517f08c379a000000000000000000000000000000000000000000000000000000000815260040161332e90615650565b60405180910390fd5b613340816121b8565b15613380576040517f08c379a0000000000000000000000000000000000000000000000000000000008152600401613377906156bc565b60405180910390fd5b61338c600083836130b7565b6001600360008473ffffffffffffffffffffffffffffffffffffffff1673ffffffffffffffffffffffffffffffffffffffff16815260200190815260200160002060008282546133dc91906150b8565b92505081905550816002600083815260200190815260200160002060006101000a81548173ffffffffffffffffffffffffffffffffffffffff021916908373ffffffffffffffffffffffffffffffffffffffff160217905550808273ffffffffffffffffffffffffffffffffffffffff16600073ffffffffffffffffffffffffffffffffffffffff167fddf252ad1be2c89b69c2b068fc378daa952ba7f163c4a11628f55a4df523b3ef60405160405180910390a461349d600083836130bc565b5050565b6040518060a0016040528060608152602001606081526020016060815260200160608152602001606081525090565b8280546134dc906140b6565b90600052602060002090601f0160209004810192826134fe5760008555613545565b82601f1061351757803560ff1916838001178555613545565b82800160010185558215613545579182015b82811115613544578235825591602001919060010190613529565b5b50905061355291906135dc565b5090565b828054613562906140b6565b90600052602060002090601f01602090048101928261358457600085556135cb565b82601f1061359d57805160ff19168380011785556135cb565b828001600101855582156135cb579182015b828111156135ca5782518255916020019190600101906135af565b5b5090506135d891906135dc565b5090565b5b808211156135f55760008160009055506001016135dd565b5090565b6000604051905090565b600080fd5b600080fd5b60007fffffffff0000000000000000000000000000000000000000000000000000000082169050919050565b6136428161360d565b811461364d57600080fd5b50565b60008135905061365f81613639565b92915050565b60006020828403121561367b5761367a613603565b5b600061368984828501613650565b91505092915050565b60008115159050919050565b6136a781613692565b82525050565b60006020820190506136c2600083018461369e565b92915050565b600081519050919050565b600082825260208201905092915050565b60005b838110156137025780820151818401526020810190506136e7565b83811115613711576000848401525b50505050565b6000601f19601f8301169050919050565b6000613733826136c8565b61373d81856136d3565b935061374d8185602086016136e4565b61375681613717565b840191505092915050565b6000602082019050818103600083015261377b8184613728565b905092915050565b6000819050919050565b61379681613783565b81146137a157600080fd5b50565b6000813590506137b38161378d565b92915050565b6000602082840312156137cf576137ce613603565b5b60006137dd848285016137a4565b91505092915050565b600073ffffffffffffffffffffffffffffffffffffffff82169050919050565b6000613811826137e6565b9050919050565b61382181613806565b82525050565b600060208201905061383c6000830184613818565b92915050565b61384b81613806565b811461385657600080fd5b50565b60008135905061386881613842565b92915050565b6000806040838503121561388557613884613603565b5b600061389385828601613859565b92505060206138a4858286016137a4565b9150509250929050565b600080fd5b600080fd5b600080fd5b60008083601f8401126138d3576138d26138ae565b5b8235905067ffffffffffffffff8111156138f0576138ef6138b3565b5b60208301915083600182028301111561390c5761390b6138b8565b5b9250929050565b6000806020838503121561392a57613929613603565b5b600083013567ffffffffffffffff81111561394857613947613608565b5b613954858286016138bd565b92509250509250929050565b600082825260208201905092915050565b600061397c826136c8565b6139868185613960565b93506139968185602086016136e4565b61399f81613717565b840191505092915050565b600060a08301600083015184820360008601526139c78282613971565b915050602083015184820360208601526139e18282613971565b915050604083015184820360408601526139fb8282613971565b91505060608301518482036060860152613a158282613971565b91505060808301518482036080860152613a2f8282613971565b9150508091505092915050565b60006020820190508181036000830152613a5681846139aa565b905092915050565b600080600060608486031215613a7757613a76613603565b5b6000613a8586828701613859565b9350506020613a9686828701613859565b9250506040613aa7868287016137a4565b9150509250925092565b600080fd5b7f4e487b7100000000000000000000000000000000000000000000000000000000600052604160045260246000fd5b613aee82613717565b810181811067ffffffffffffffff82111715613b0d57613b0c613ab6565b5b80604052505050565b6000613b206135f9565b9050613b2c8282613ae5565b919050565b600067ffffffffffffffff821115613b4c57613b4b613ab6565b5b613b5582613717565b9050602081019050919050565b82818337600083830152505050565b6000613b84613b7f84613b31565b613b16565b905082815260208101848484011115613ba057613b9f613ab1565b5b613bab848285613b62565b509392505050565b600082601f830112613bc857613bc76138ae565b5b8135613bd8848260208601613b71565b91505092915050565b600060208284031215613bf757613bf6613603565b5b600082013567ffffffffffffffff811115613c1557613c14613608565b5b613c2184828501613bb3565b91505092915050565b600060a0820190508181036000830152613c448188613728565b90508181036020830152613c588187613728565b90508181036040830152613c6c8186613728565b90508181036060830152613c808185613728565b90508181036080830152613c948184613728565b90509695505050505050565b600080fd5b600060a08284031215613cbb57613cba613ca0565b5b81905092915050565b600080600060408486031215613cdd57613cdc613603565b5b600084013567ffffffffffffffff811115613cfb57613cfa613608565b5b613d07868287016138bd565b9350935050602084013567ffffffffffffffff811115613d2a57613d29613608565b5b613d3686828701613ca5565b9150509250925092565b600060208284031215613d5657613d55613603565b5b6000613d6484828501613859565b91505092915050565b613d7681613783565b82525050565b6000602082019050613d916000830184613d6d565b92915050565b6000613da2826137e6565b9050919050565b613db281613d97565b82525050565b6000602082019050613dcd6000830184613da9565b92915050565b613ddc81613692565b8114613de757600080fd5b50565b600081359050613df981613dd3565b92915050565b60008060408385031215613e1657613e15613603565b5b6000613e2485828601613859565b9250506020613e3585828601613dea565b9150509250929050565b600067ffffffffffffffff821115613e5a57613e59613ab6565b5b613e6382613717565b9050602081019050919050565b6000613e83613e7e84613e3f565b613b16565b905082815260208101848484011115613e9f57613e9e613ab1565b5b613eaa848285613b62565b509392505050565b600082601f830112613ec757613ec66138ae565b5b8135613ed7848260208601613e70565b91505092915050565b60008060008060808587031215613efa57613ef9613603565b5b6000613f0887828801613859565b9450506020613f1987828801613859565b9350506040613f2a878288016137a4565b925050606085013567ffffffffffffffff811115613f4b57613f4a613608565b5b613f5787828801613eb2565b91505092959194509250565b60008060408385031215613f7a57613f79613603565b5b6000613f8885828601613859565b9250506020613f9985828601613859565b9150509250929050565b600081519050919050565b600082825260208201905092915050565b6000819050602082019050919050565b6000613fdb8383613971565b905092915050565b6000602082019050919050565b6000613ffb82613fa3565b6140058185613fae565b93508360208202850161401785613fbf565b8060005b8581101561405357848403895281516140348582613fcf565b945061403f83613fe3565b925060208a0199505060018101905061401b565b50829750879550505050505092915050565b6000602082019050818103600083015261407f8184613ff0565b905092915050565b7f4e487b7100000000000000000000000000000000000000000000000000000000600052602260045260246000fd5b600060028204905060018216806140ce57607f821691505b602082108114156140e2576140e1614087565b5b50919050565b7f4552433732313a20617070726f76656420717565727920666f72206e6f6e657860008201527f697374656e7420746f6b656e0000000000000000000000000000000000000000602082015250565b6000614144602c836136d3565b915061414f826140e8565b604082019050919050565b6000602082019050818103600083015261417381614137565b9050919050565b7f4552433732313a20617070726f76616c20746f2063757272656e74206f776e6560008201527f7200000000000000000000000000000000000000000000000000000000000000602082015250565b60006141d66021836136d3565b91506141e18261417a565b604082019050919050565b60006020820190508181036000830152614205816141c9565b9050919050565b7f4552433732313a20617070726f76652063616c6c6572206973206e6f74206f7760008201527f6e6572206e6f7220617070726f76656420666f7220616c6c0000000000000000602082015250565b60006142686038836136d3565b91506142738261420c565b604082019050919050565b600060208201905081810360008301526142978161425b565b9050919050565b600081905092915050565b60006142b5838561429e565b93506142c2838584613b62565b82840190509392505050565b60006142db8284866142a9565b91508190509392505050565b7f4552433732313a207472616e736665722063616c6c6572206973206e6f74206f60008201527f776e6572206e6f7220617070726f766564000000000000000000000000000000602082015250565b60006143436031836136d3565b915061434e826142e7565b604082019050919050565b6000602082019050818103600083015261437281614336565b9050919050565b600081905092915050565b50565b6000614394600083614379565b915061439f82614384565b600082019050919050565b60006143b582614387565b9150819050919050565b7f4661696c656420746f207769746864726177204d617469630000000000000000600082015250565b60006143f56018836136d3565b9150614400826143bf565b602082019050919050565b60006020820190508181036000830152614424816143e8565b9050919050565b600080fd5b600080fd5b600080fd5b600080833560016020038436030381126144575761445661442b565b5b80840192508235915067ffffffffffffffff82111561447957614478614430565b5b60208301925060018202360383131561449557614494614435565b5b509250929050565b600082905092915050565b60008190508160005260206000209050919050565b60006020601f8301049050919050565b600082821b905092915050565b60006008830261450a7fffffffffffffffffffffffffffffffffffffffffffffffffffffffffffffffff826144cd565b61451486836144cd565b95508019841693508086168417925050509392505050565b6000819050919050565b600061455161454c61454784613783565b61452c565b613783565b9050919050565b6000819050919050565b61456b83614536565b61457f61457782614558565b8484546144da565b825550505050565b600090565b614594614587565b61459f818484614562565b505050565b5b818110156145c3576145b860008261458c565b6001810190506145a5565b5050565b601f821115614608576145d9816144a8565b6145e2846144bd565b810160208510156145f1578190505b6146056145fd856144bd565b8301826145a4565b50505b505050565b600082821c905092915050565b600061462b6000198460080261460d565b1980831691505092915050565b6000614644838361461a565b9150826002028217905092915050565b61465e838361449d565b67ffffffffffffffff81111561467757614676613ab6565b5b61468182546140b6565b61468c8282856145c7565b6000601f8311600181146146bb57600084156146a9578287013590505b6146b38582614638565b86555061471b565b601f1984166146c9866144a8565b60005b828110156146f1578489013582556001820191506020850194506020810190506146cc565b8683101561470e578489013561470a601f89168261461a565b8355505b6001600288020188555050505b50505050505050565b61472f838383614654565b505050565b6000810160008301614746818561443a565b614751818386614724565b505050506001810160208301614767818561443a565b614772818386614724565b505050506002810160408301614788818561443a565b614793818386614724565b5050505060038101606083016147a9818561443a565b6147b4818386614724565b5050505060048101608083016147ca818561443a565b6147d5818386614724565b505050505050565b6147e78282614734565b5050565b7f4552433732313a206f776e657220717565727920666f72206e6f6e657869737460008201527f656e7420746f6b656e0000000000000000000000000000000000000000000000602082015250565b60006148476029836136d3565b9150614852826147eb565b604082019050919050565b600060208201905081810360008301526148768161483a565b9050919050565b7f4552433732313a2062616c616e636520717565727920666f7220746865207a6560008201527f726f206164647265737300000000000000000000000000000000000000000000602082015250565b60006148d9602a836136d3565b91506148e48261487d565b604082019050919050565b60006020820190508181036000830152614908816148cc565b9050919050565b7f45524337323155524953746f726167653a2055524920717565727920666f722060008201527f6e6f6e6578697374656e7420746f6b656e000000000000000000000000000000602082015250565b600061496b6031836136d3565b91506149768261490f565b604082019050919050565b6000602082019050818103600083015261499a8161495e565b9050919050565b60006149ac826136c8565b6149b6818561429e565b93506149c68185602086016136e4565b80840191505092915050565b60006149de82856149a1565b91506149ea82846149a1565b91508190509392505050565b6000614a0283856136d3565b9350614a0f838584613b62565b614a1883613717565b840190509392505050565b60006020820190508181036000830152614a3e8184866149f6565b90509392505050565b7f4e6f7420656e6f756768204d6174696320706169640000000000000000000000600082015250565b6000614a7d6015836136d3565b9150614a8882614a47565b602082019050919050565b60006020820190508181036000830152614aac81614a70565b9050919050565b7f2e00000000000000000000000000000000000000000000000000000000000000600082015250565b6000614ae960018361429e565b9150614af482614ab3565b600182019050919050565b60008154614b0c816140b6565b614b16818661429e565b94506001821660008114614b315760018114614b4257614b75565b60ff19831686528186019350614b75565b614b4b856144a8565b60005b83811015614b6d57815481890152600182019150602081019050614b4e565b838801955050505b50505092915050565b6000614b8b8285876142a9565b9150614b9682614adc565b9150614ba28284614aff565b9150819050949350505050565b6000614bbb8286614aff565b9150614bc782856149a1565b9150614bd38284614aff565b9150819050949350505050565b7f7b226e616d65223a202200000000000000000000000000000000000000000000600082015250565b6000614c16600a8361429e565b9150614c2182614be0565b600a82019050919050565b7f222c20226465736372697074696f6e223a20224120646f6d61696e206f6e207460008201527f6865204e696e6a61206e616d652073657276696365222c2022696d616765223a60208201527f2022646174613a696d6167652f7376672b786d6c3b6261736536342c00000000604082015250565b6000614cae605c8361429e565b9150614cb982614c2c565b605c82019050919050565b7f222c226c656e677468223a220000000000000000000000000000000000000000600082015250565b6000614cfa600c8361429e565b9150614d0582614cc4565b600c82019050919050565b7f227d000000000000000000000000000000000000000000000000000000000000600082015250565b6000614d4660028361429e565b9150614d5182614d10565b600282019050919050565b6000614d6782614c09565b9150614d7382866149a1565b9150614d7e82614ca1565b9150614d8a82856149a1565b9150614d9582614ced565b9150614da182846149a1565b9150614dac82614d39565b9150819050949350505050565b7f646174613a6170706c69636174696f6e2f6a736f6e3b6261736536342c000000600082015250565b6000614def601d8361429e565b9150614dfa82614db9565b601d82019050919050565b6000614e1082614de2565b9150614e1c82846149a1565b915081905092915050565b7f4e487b7100000000000000000000000000000000000000000000000000000000600052603260045260246000fd5b7f4e487b7100000000000000000000000000000000000000000000000000000000600052601160045260246000fd5b6000614e9082613783565b91507fffffffffffffffffffffffffffffffffffffffffffffffffffffffffffffffff821415614ec357614ec2614e56565b5b600182019050919050565b7f4552433732313a206f70657261746f7220717565727920666f72206e6f6e657860008201527f697374656e7420746f6b656e0000000000000000000000000000000000000000602082015250565b6000614f2a602c836136d3565b9150614f3582614ece565b604082019050919050565b60006020820190508181036000830152614f5981614f1d565b9050919050565b7f4552433732313a207472616e736665722066726f6d20696e636f72726563742060008201527f6f776e6572000000000000000000000000000000000000000000000000000000602082015250565b6000614fbc6025836136d3565b9150614fc782614f60565b604082019050919050565b60006020820190508181036000830152614feb81614faf565b9050919050565b7f4552433732313a207472616e7366657220746f20746865207a65726f2061646460008201527f7265737300000000000000000000000000000000000000000000000000000000602082015250565b600061504e6024836136d3565b915061505982614ff2565b604082019050919050565b6000602082019050818103600083015261507d81615041565b9050919050565b600061508f82613783565b915061509a83613783565b9250828210156150ad576150ac614e56565b5b828203905092915050565b60006150c382613783565b91506150ce83613783565b9250827fffffffffffffffffffffffffffffffffffffffffffffffffffffffffffffffff0382111561510357615102614e56565b5b828201905092915050565b7f4552433732313a20617070726f766520746f2063616c6c657200000000000000600082015250565b60006151446019836136d3565b915061514f8261510e565b602082019050919050565b6000602082019050818103600083015261517381615137565b9050919050565b7f4552433732313a207472616e7366657220746f206e6f6e20455243373231526560008201527f63656976657220696d706c656d656e7465720000000000000000000000000000602082015250565b60006151d66032836136d3565b91506151e18261517a565b604082019050919050565b60006020820190508181036000830152615205816151c9565b9050919050565b7f4552433732314d657461646174613a2055524920717565727920666f72206e6f60008201527f6e6578697374656e7420746f6b656e0000000000000000000000000000000000602082015250565b6000615268602f836136d3565b91506152738261520c565b604082019050919050565b600060208201905081810360008301526152978161525b565b9050919050565b7f4e487b7100000000000000000000000000000000000000000000000000000000600052601260045260246000fd5b60006152d882613783565b91506152e383613783565b9250826152f3576152f261529e565b5b828204905092915050565b600061530982613783565b915061531483613783565b9250826153245761532361529e565b5b828206905092915050565b600060808201905081810360008301526153498187613728565b9050818103602083015261535d8186613728565b905081810360408301526153718185613728565b90506153806060830184613d6d565b95945050505050565b600061539482613783565b915061539f83613783565b9250817fffffffffffffffffffffffffffffffffffffffffffffffffffffffffffffffff04831182151516156153d8576153d7614e56565b5b828202905092915050565b600060408201905081810360008301526153fd8185613728565b905081810360208301526154118184613728565b90509392505050565b7f45524337323155524953746f726167653a2055524920736574206f66206e6f6e60008201527f6578697374656e7420746f6b656e000000000000000000000000000000000000602082015250565b6000615476602e836136d3565b91506154818261541a565b604082019050919050565b600060208201905081810360008301526154a581615469565b9050919050565b600060408201905081810360008301526154c68185613728565b90506154d56020830184613818565b9392505050565b600060608201905081810360008301526154f68186613728565b90506155056020830185613d6d565b81810360408301526155178184613728565b9050949350505050565b600081519050919050565b600082825260208201905092915050565b600061554882615521565b615552818561552c565b93506155628185602086016136e4565b61556b81613717565b840191505092915050565b600060808201905061558b6000830187613818565b6155986020830186613818565b6155a56040830185613d6d565b81810360608301526155b7818461553d565b905095945050505050565b6000815190506155d181613639565b92915050565b6000602082840312156155ed576155ec613603565b5b60006155fb848285016155c2565b91505092915050565b7f4552433732313a206d696e7420746f20746865207a65726f2061646472657373600082015250565b600061563a6020836136d3565b915061564582615604565b602082019050919050565b600060208201905081810360008301526156698161562d565b9050919050565b7f4552433732313a20746f6b656e20616c7265616479206d696e74656400000000600082015250565b60006156a6601c836136d3565b91506156b182615670565b602082019050919050565b600060208201905081810360008301526156d581615699565b905091905056fe0a2d2d2d2d2d2d2d2d2d2d2d2d2d2d2d2d2d2d2d2d2d2d2d2d2d2d2d2d2d2d2d2d2d2d2d2d2d2d2d2d2d2d2d2d2d2d2d2d2d2d2d2d2d2d2d2d5265676973746572696e672025732e2573206f6e2074686520636f6e7472616374207769746820746f6b656e49442025642d2d2d2d2d2d2d2d2d2d2d2d2d2d2d2d2d2d2d2d2d2d2d2d2d2d2d2d2d2d2d2d2d2d2d2d2d2d2d2d2d2d2d2d2d2d2d2d2d2d2d2d2d2d2d2d0a4142434445464748494a4b4c4d4e4f505152535455565758595a6162636465666768696a6b6c6d6e6f707172737475767778797a303132333435363738392b2fa2646970667358221220f84e5ca77b2657f168343504787d606f4534a321c1a65307370f1c15c7e922cb64736f6c634300080a00334869207365722c20646f6d61696e7320636f6e74726163742063726561746564207365723c73766720786d6c6e733d22687474703a2f2f7777772e77332e6f72672f323030302f737667222077696474683d2232373022206865696768743d22323730222066696c6c3d226e6f6e65223e3c706174682066696c6c3d2275726c282342292220643d224d302030683237307632373048307a222f3e3c646566733e3c66696c7465722069643d22412220636f6c6f722d696e746572706f6c6174696f6e2d66696c746572733d2273524742222066696c746572556e6974733d227573657253706163654f6e55736522206865696768743d22323730222077696474683d22323730223e3c666544726f70536861646f772064783d2230222064793d22312220737464446576696174696f6e3d22322220666c6f6f642d6f7061636974793d222e323235222077696474683d223230302522206865696768743d2232303025222f3e3c2f66696c7465723e3c2f646566733e3c7061746820643d224d37322e3836332034322e393439632d2e3636382d2e3338372d312e3432362d2e35392d322e3139372d2e3539732d312e3532392e3230342d322e3139372e35396c2d31302e30383120362e3033322d362e383520332e3933342d31302e30383120362e303332632d2e3636382e3338372d312e3432362e35392d322e3139372e3539732d312e3532392d2e3230342d322e3139372d2e35396c2d382e3031332d342e37323161342e353220342e35322030203020312d312e3538392d312e363136632d2e3338342d2e3636352d2e3539342d312e3431382d2e3630382d322e313837762d392e3331632d2e3031332d2e3737352e3138352d312e3533382e3537322d322e32303861342e323520342e323520302030203120312e3632352d312e3539356c372e3838342d342e3539632e3636382d2e33383720312e3432362d2e353920322e3139372d2e353973312e3532392e32303420322e3139372e35396c372e38383420342e353961342e353220342e353220302030203120312e35383920312e363136632e3338342e3636352e35393420312e3431382e36303820322e31383776362e3033326c362e38352d342e303635762d362e303332632e3031332d2e3737352d2e3138352d312e3533382d2e3537322d322e32303861342e323520342e32352030203020302d312e3632352d312e3539354c34312e3435362032342e3539632d2e3636382d2e3338372d312e3432362d2e35392d322e3139372d2e3539732d312e3532392e3230342d322e3139372e35396c2d31342e38363420382e36353561342e323520342e32352030203020302d312e36323520312e353935632d2e3338372e36372d2e35383520312e3433342d2e35373220322e3230387631372e343431632d2e3031332e3737352e31383520312e3533382e35373220322e32303861342e323520342e323520302030203020312e36323520312e3539356c31342e38363420382e363535632e3636382e33383720312e3432362e353920322e3139372e353973312e3532392d2e32303420322e3139372d2e35396c31302e3038312d352e39303120362e38352d342e3036352031302e3038312d352e393031632e3636382d2e33383720312e3432362d2e353920322e3139372d2e353973312e3532392e32303420322e3139372e35396c372e38383420342e353961342e353220342e353220302030203120312e35383920312e363136632e3338342e3636352e35393420312e3431382e36303820322e31383776392e333131632e3031332e3737352d2e31383520312e3533382d2e35373220322e32303861342e323520342e32352030203020312d312e36323520312e3539356c2d372e38383420342e373231632d2e3636382e3338372d312e3432362e35392d322e3139372e3539732d312e3532392d2e3230342d322e3139372d2e35396c2d372e3838342d342e353961342e353220342e35322030203020312d312e3538392d312e363136632d2e3338352d2e3636352d2e3539342d312e3431382d2e3630382d322e313837762d362e3033326c2d362e383520342e30363576362e303332632d2e3031332e3737352e31383520312e3533382e35373220322e32303861342e323520342e323520302030203020312e36323520312e3539356c31342e38363420382e363535632e3636382e33383720312e3432362e353920322e3139372e353973312e3532392d2e32303420322e3139372d2e35396c31342e3836342d382e363535632e3635372d2e33393420312e3230342d2e393520312e3538392d312e363136732e3539342d312e3431382e3630392d322e3138375635352e353338632e3031332d2e3737352d2e3138352d312e3533382d2e3537322d322e32303861342e323520342e32352030203020302d312e3632352d312e3539356c2d31342e3939332d382e3738367a222066696c6c3d2223666666222f3e3c646566733e3c6c696e6561724772616469656e742069643d2242222078313d2230222079313d2230222078323d22323730222079323d2232373022206772616469656e74556e6974733d227573657253706163654f6e557365223e3c73746f702073746f702d636f6c6f723d2223636235656565222f3e3c73746f70206f66667365743d2231222073746f702d636f6c6f723d2223306364376534222073746f702d6f7061636974793d222e3939222f3e3c2f6c696e6561724772616469656e743e3c2f646566733e3c7465787420783d2233322e352220793d223233312220666f6e742d73697a653d223237222066696c6c3d2223666666222066696c7465723d2275726c282341292220666f6e742d66616d696c793d22506c7573204a616b617274612053616e732c44656a6156752053616e732c4e6f746f20436f6c6f7220456d6f6a692c4170706c6520436f6c6f7220456d6f6a692c73616e732d73657269662220666f6e742d7765696768743d22626f6c64223e",
  "linkReferences": {},
  "deployedLinkReferences": {}
}