{
  "_format": "hh-sol-artifact-1",
  "contractName": "Domains",
  "sourceName": "contracts/Domains.sol",
  "abi": [
    {
      "inputs": [
        {
          "internalType": "string",
          "name": "_tld",
          "type": "string"
        }
      ],
      "stateMutability": "payable",
      "type": "constructor"
    },
    {
      "anonymous": false,
      "inputs": [
        {
          "indexed": true,
          "internalType": "address",
          "name": "owner",
          "type": "address"
        },
        {
          "indexed": true,
          "internalType": "address",
          "name": "approved",
          "type": "address"
        },
        {
          "indexed": true,
          "internalType": "uint256",
          "name": "tokenId",
          "type": "uint256"
        }
      ],
      "name": "Approval",
      "type": "event"
    },
    {
      "anonymous": false,
      "inputs": [
        {
          "indexed": true,
          "internalType": "address",
          "name": "owner",
          "type": "address"
        },
        {
          "indexed": true,
          "internalType": "address",
          "name": "operator",
          "type": "address"
        },
        {
          "indexed": false,
          "internalType": "bool",
          "name": "approved",
          "type": "bool"
        }
      ],
      "name": "ApprovalForAll",
      "type": "event"
    },
    {
      "anonymous": false,
      "inputs": [
        {
          "indexed": true,
          "internalType": "address",
          "name": "from",
          "type": "address"
        },
        {
          "indexed": true,
          "internalType": "address",
          "name": "to",
          "type": "address"
        },
        {
          "indexed": true,
          "internalType": "uint256",
          "name": "tokenId",
          "type": "uint256"
        }
      ],
      "name": "Transfer",
      "type": "event"
    },
    {
      "inputs": [
        {
          "internalType": "address",
          "name": "to",
          "type": "address"
        },
        {
          "internalType": "uint256",
          "name": "tokenId",
          "type": "uint256"
        }
      ],
      "name": "approve",
      "outputs": [],
      "stateMutability": "nonpayable",
      "type": "function"
    },
    {
      "inputs": [
        {
          "internalType": "address",
          "name": "owner",
          "type": "address"
        }
      ],
      "name": "balanceOf",
      "outputs": [
        {
          "internalType": "uint256",
          "name": "",
          "type": "uint256"
        }
      ],
      "stateMutability": "view",
      "type": "function"
    },
    {
      "inputs": [
        {
          "internalType": "string",
          "name": "",
          "type": "string"
        }
      ],
      "name": "domains",
      "outputs": [
        {
          "internalType": "address",
          "name": "",
          "type": "address"
        }
      ],
      "stateMutability": "view",
      "type": "function"
    },
    {
      "inputs": [
        {
          "internalType": "string",
          "name": "name",
          "type": "string"
        }
      ],
      "name": "getAddress",
      "outputs": [
        {
          "internalType": "address",
          "name": "",
          "type": "address"
        }
      ],
      "stateMutability": "view",
      "type": "function"
    },
    {
      "inputs": [
        {
          "internalType": "uint256",
          "name": "tokenId",
          "type": "uint256"
        }
      ],
      "name": "getApproved",
      "outputs": [
        {
          "internalType": "address",
          "name": "",
          "type": "address"
        }
      ],
      "stateMutability": "view",
      "type": "function"
    },
    {
      "inputs": [
        {
          "internalType": "string",
          "name": "name",
          "type": "string"
        }
      ],
      "name": "getRecord",
      "outputs": [
        {
          "components": [
            {
              "internalType": "string",
              "name": "username",
              "type": "string"
            },
            {
              "internalType": "string",
              "name": "github",
              "type": "string"
            },
            {
              "internalType": "string",
              "name": "email",
              "type": "string"
            },
            {
              "internalType": "string",
              "name": "twitter",
              "type": "string"
            },
            {
              "internalType": "string",
              "name": "website",
              "type": "string"
            }
          ],
          "internalType": "struct DomainData",
          "name": "",
          "type": "tuple"
        }
      ],
      "stateMutability": "view",
      "type": "function"
    },
    {
      "inputs": [
        {
          "internalType": "address",
          "name": "owner",
          "type": "address"
        },
        {
          "internalType": "address",
          "name": "operator",
          "type": "address"
        }
      ],
      "name": "isApprovedForAll",
      "outputs": [
        {
          "internalType": "bool",
          "name": "",
          "type": "bool"
        }
      ],
      "stateMutability": "view",
      "type": "function"
    },
    {
      "inputs": [],
      "name": "name",
      "outputs": [
        {
          "internalType": "string",
          "name": "",
          "type": "string"
        }
      ],
      "stateMutability": "view",
      "type": "function"
    },
    {
      "inputs": [
        {
          "internalType": "uint256",
          "name": "tokenId",
          "type": "uint256"
        }
      ],
      "name": "ownerOf",
      "outputs": [
        {
          "internalType": "address",
          "name": "",
          "type": "address"
        }
      ],
      "stateMutability": "view",
      "type": "function"
    },
    {
      "inputs": [
        {
          "internalType": "string",
          "name": "name",
          "type": "string"
        }
      ],
      "name": "price",
      "outputs": [
        {
          "internalType": "uint256",
          "name": "",
          "type": "uint256"
        }
      ],
      "stateMutability": "pure",
      "type": "function"
    },
    {
      "inputs": [
        {
          "internalType": "string",
          "name": "",
          "type": "string"
        }
      ],
      "name": "records",
      "outputs": [
        {
          "internalType": "string",
          "name": "username",
          "type": "string"
        },
        {
          "internalType": "string",
          "name": "github",
          "type": "string"
        },
        {
          "internalType": "string",
          "name": "email",
          "type": "string"
        },
        {
          "internalType": "string",
          "name": "twitter",
          "type": "string"
        },
        {
          "internalType": "string",
          "name": "website",
          "type": "string"
        }
      ],
      "stateMutability": "view",
      "type": "function"
    },
    {
      "inputs": [
        {
          "internalType": "string",
          "name": "name",
          "type": "string"
        }
      ],
      "name": "register",
      "outputs": [],
      "stateMutability": "payable",
      "type": "function"
    },
    {
      "inputs": [
        {
          "internalType": "address",
          "name": "from",
          "type": "address"
        },
        {
          "internalType": "address",
          "name": "to",
          "type": "address"
        },
        {
          "internalType": "uint256",
          "name": "tokenId",
          "type": "uint256"
        }
      ],
      "name": "safeTransferFrom",
      "outputs": [],
      "stateMutability": "nonpayable",
      "type": "function"
    },
    {
      "inputs": [
        {
          "internalType": "address",
          "name": "from",
          "type": "address"
        },
        {
          "internalType": "address",
          "name": "to",
          "type": "address"
        },
        {
          "internalType": "uint256",
          "name": "tokenId",
          "type": "uint256"
        },
        {
          "internalType": "bytes",
          "name": "_data",
          "type": "bytes"
        }
      ],
      "name": "safeTransferFrom",
      "outputs": [],
      "stateMutability": "nonpayable",
      "type": "function"
    },
    {
      "inputs": [
        {
          "internalType": "address",
          "name": "operator",
          "type": "address"
        },
        {
          "internalType": "bool",
          "name": "approved",
          "type": "bool"
        }
      ],
      "name": "setApprovalForAll",
      "outputs": [],
      "stateMutability": "nonpayable",
      "type": "function"
    },
    {
      "inputs": [
        {
          "internalType": "string",
          "name": "name",
          "type": "string"
        },
        {
          "components": [
            {
              "internalType": "string",
              "name": "username",
              "type": "string"
            },
            {
              "internalType": "string",
              "name": "github",
              "type": "string"
            },
            {
              "internalType": "string",
              "name": "email",
              "type": "string"
            },
            {
              "internalType": "string",
              "name": "twitter",
              "type": "string"
            },
            {
              "internalType": "string",
              "name": "website",
              "type": "string"
            }
          ],
          "internalType": "struct DomainData",
          "name": "value",
          "type": "tuple"
        }
      ],
      "name": "setRecord",
      "outputs": [],
      "stateMutability": "nonpayable",
      "type": "function"
    },
    {
      "inputs": [
        {
          "internalType": "bytes4",
          "name": "interfaceId",
          "type": "bytes4"
        }
      ],
      "name": "supportsInterface",
      "outputs": [
        {
          "internalType": "bool",
          "name": "",
          "type": "bool"
        }
      ],
      "stateMutability": "view",
      "type": "function"
    },
    {
      "inputs": [],
      "name": "symbol",
      "outputs": [
        {
          "internalType": "string",
          "name": "",
          "type": "string"
        }
      ],
      "stateMutability": "view",
      "type": "function"
    },
    {
      "inputs": [],
      "name": "tld",
      "outputs": [
        {
          "internalType": "string",
          "name": "",
          "type": "string"
        }
      ],
      "stateMutability": "view",
      "type": "function"
    },
    {
      "inputs": [
        {
          "internalType": "uint256",
          "name": "tokenId",
          "type": "uint256"
        }
      ],
      "name": "tokenURI",
      "outputs": [
        {
          "internalType": "string",
          "name": "",
          "type": "string"
        }
      ],
      "stateMutability": "view",
      "type": "function"
    },
    {
      "inputs": [
        {
          "internalType": "address",
          "name": "from",
          "type": "address"
        },
        {
          "internalType": "address",
          "name": "to",
          "type": "address"
        },
        {
          "internalType": "uint256",
          "name": "tokenId",
          "type": "uint256"
        }
      ],
      "name": "transferFrom",
      "outputs": [],
      "stateMutability": "nonpayable",
      "type": "function"
    }
  ],
  "bytecode": "0x6080604052604051806108a0016040528061086b81526020016200534561086b9139600990805190602001906200003892919062000267565b506040518060400160405280600d81526020017f3c2f746578743e3c2f7376673e00000000000000000000000000000000000000815250600a90805190602001906200008692919062000267565b5060405162005bb038038062005bb08339818101604052810190620000ac9190620004b4565b6040518060400160405280601281526020017f506f67204e616d696e67205365727669636500000000000000000000000000008152506040518060400160405280600381526020017f504f47000000000000000000000000000000000000000000000000000000000081525081600090805190602001906200013092919062000267565b5080600190805190602001906200014992919062000267565b50505080600890805190602001906200016492919062000267565b506200019460405180606001604052806024815260200162005321602491396200019b60201b620019731760201c565b50620005eb565b6200023b81604051602401620001b2919062000562565b6040516020818303038152906040527f41304fac000000000000000000000000000000000000000000000000000000007bffffffffffffffffffffffffffffffffffffffffffffffffffffffff19166020820180517bffffffffffffffffffffffffffffffffffffffffffffffffffffffff83818316178352505050506200023e60201b60201c565b50565b60008151905060006a636f6e736f6c652e6c6f679050602083016000808483855afa5050505050565b8280546200027590620005b5565b90600052602060002090601f016020900481019282620002995760008555620002e5565b82601f10620002b457805160ff1916838001178555620002e5565b82800160010185558215620002e5579182015b82811115620002e4578251825591602001919060010190620002c7565b5b509050620002f49190620002f8565b5090565b5b8082111562000313576000816000905550600101620002f9565b5090565b6000604051905090565b600080fd5b600080fd5b600080fd5b600080fd5b6000601f19601f8301169050919050565b7f4e487b7100000000000000000000000000000000000000000000000000000000600052604160045260246000fd5b620003808262000335565b810181811067ffffffffffffffff82111715620003a257620003a162000346565b5b80604052505050565b6000620003b762000317565b9050620003c5828262000375565b919050565b600067ffffffffffffffff821115620003e857620003e762000346565b5b620003f38262000335565b9050602081019050919050565b60005b838110156200042057808201518184015260208101905062000403565b8381111562000430576000848401525b50505050565b60006200044d6200044784620003ca565b620003ab565b9050828152602081018484840111156200046c576200046b62000330565b5b6200047984828562000400565b509392505050565b600082601f8301126200049957620004986200032b565b5b8151620004ab84826020860162000436565b91505092915050565b600060208284031215620004cd57620004cc62000321565b5b600082015167ffffffffffffffff811115620004ee57620004ed62000326565b5b620004fc8482850162000481565b91505092915050565b600081519050919050565b600082825260208201905092915050565b60006200052e8262000505565b6200053a818562000510565b93506200054c81856020860162000400565b620005578162000335565b840191505092915050565b600060208201905081810360008301526200057e818462000521565b905092915050565b7f4e487b7100000000000000000000000000000000000000000000000000000000600052602260045260246000fd5b60006002820490506001821680620005ce57607f821691505b60208210811415620005e557620005e462000586565b5b50919050565b614d2680620005fb6000396000f3fe60806040526004361061012a5760003560e01c80635cded8e0116100ab578063b88d4fde1161006f578063b88d4fde1461042c578063bf40fac114610455578063c87b56dd14610492578063e985e9c5146104cf578063f2c298be1461050c578063fe2c6198146105285761012a565b80635cded8e0146103355780636352211e1461035e57806370a082311461039b57806395d89b41146103d8578063a22cb465146104035761012a565b806323b872dd116100f257806323b872dd1461023a57806326449235146102635780632d551432146102a057806342842e0e146102cb578063541e771d146102f45761012a565b806301ffc9a71461012f57806306fdde031461016c578063081812fc14610197578063095ea7b3146101d457806311dd8845146101fd575b600080fd5b34801561013b57600080fd5b5061015660048036038101906101519190612dfe565b610565565b6040516101639190612e46565b60405180910390f35b34801561017857600080fd5b50610181610647565b60405161018e9190612efa565b60405180910390f35b3480156101a357600080fd5b506101be60048036038101906101b99190612f52565b6106d9565b6040516101cb9190612fc0565b60405180910390f35b3480156101e057600080fd5b506101fb60048036038101906101f69190613007565b61075e565b005b34801561020957600080fd5b50610224600480360381019061021f91906130ac565b610876565b60405161023191906131d5565b60405180910390f35b34801561024657600080fd5b50610261600480360381019061025c91906131f7565b610b8b565b005b34801561026f57600080fd5b5061028a6004803603810190610285919061337a565b610beb565b6040516102979190612fc0565b60405180910390f35b3480156102ac57600080fd5b506102b5610c34565b6040516102c29190612efa565b60405180910390f35b3480156102d757600080fd5b506102f260048036038101906102ed91906131f7565b610cc2565b005b34801561030057600080fd5b5061031b6004803603810190610316919061337a565b610ce2565b60405161032c9594939291906133c3565b60405180910390f35b34801561034157600080fd5b5061035c6004803603810190610357919061345d565b610fd6565b005b34801561036a57600080fd5b5061038560048036038101906103809190612f52565b61100b565b6040516103929190612fc0565b60405180910390f35b3480156103a757600080fd5b506103c260048036038101906103bd91906134d9565b6110bd565b6040516103cf9190613515565b60405180910390f35b3480156103e457600080fd5b506103ed611175565b6040516103fa9190612efa565b60405180910390f35b34801561040f57600080fd5b5061042a6004803603810190610425919061355c565b611207565b005b34801561043857600080fd5b50610453600480360381019061044e919061363d565b61121d565b005b34801561046157600080fd5b5061047c600480360381019061047791906130ac565b61127f565b6040516104899190612fc0565b60405180910390f35b34801561049e57600080fd5b506104b960048036038101906104b49190612f52565b6112ca565b6040516104c69190612efa565b60405180910390f35b3480156104db57600080fd5b506104f660048036038101906104f191906136c0565b61141c565b6040516105039190612e46565b60405180910390f35b610526600480360381019061052191906130ac565b6114b0565b005b34801561053457600080fd5b5061054f600480360381019061054a91906130ac565b6118d0565b60405161055c9190613515565b60405180910390f35b60007f80ac58cd000000000000000000000000000000000000000000000000000000007bffffffffffffffffffffffffffffffffffffffffffffffffffffffff1916827bffffffffffffffffffffffffffffffffffffffffffffffffffffffff1916148061063057507f5b5e139f000000000000000000000000000000000000000000000000000000007bffffffffffffffffffffffffffffffffffffffffffffffffffffffff1916827bffffffffffffffffffffffffffffffffffffffffffffffffffffffff1916145b80610640575061063f82611a0c565b5b9050919050565b6060600080546106569061372f565b80601f01602080910402602001604051908101604052809291908181526020018280546106829061372f565b80156106cf5780601f106106a4576101008083540402835291602001916106cf565b820191906000526020600020905b8154815290600101906020018083116106b257829003601f168201915b5050505050905090565b60006106e482611a76565b610723576040517f08c379a000000000000000000000000000000000000000000000000000000000815260040161071a906137d3565b60405180910390fd5b6004600083815260200190815260200160002060009054906101000a900473ffffffffffffffffffffffffffffffffffffffff169050919050565b60006107698261100b565b90508073ffffffffffffffffffffffffffffffffffffffff168373ffffffffffffffffffffffffffffffffffffffff1614156107da576040517f08c379a00000000000000000000000000000000000000000000000000000000081526004016107d190613865565b60405180910390fd5b8073ffffffffffffffffffffffffffffffffffffffff166107f9611ae2565b73ffffffffffffffffffffffffffffffffffffffff161480610828575061082781610822611ae2565b61141c565b5b610867576040517f08c379a000000000000000000000000000000000000000000000000000000000815260040161085e906138f7565b60405180910390fd5b6108718383611aea565b505050565b61087e612cc0565b600c8383604051610890929190613947565b90815260200160405180910390206040518060a00160405290816000820180546108b99061372f565b80601f01602080910402602001604051908101604052809291908181526020018280546108e59061372f565b80156109325780601f1061090757610100808354040283529160200191610932565b820191906000526020600020905b81548152906001019060200180831161091557829003601f168201915b5050505050815260200160018201805461094b9061372f565b80601f01602080910402602001604051908101604052809291908181526020018280546109779061372f565b80156109c45780601f10610999576101008083540402835291602001916109c4565b820191906000526020600020905b8154815290600101906020018083116109a757829003601f168201915b505050505081526020016002820180546109dd9061372f565b80601f0160208091040260200160405190810160405280929190818152602001828054610a099061372f565b8015610a565780601f10610a2b57610100808354040283529160200191610a56565b820191906000526020600020905b815481529060010190602001808311610a3957829003601f168201915b50505050508152602001600382018054610a6f9061372f565b80601f0160208091040260200160405190810160405280929190818152602001828054610a9b9061372f565b8015610ae85780601f10610abd57610100808354040283529160200191610ae8565b820191906000526020600020905b815481529060010190602001808311610acb57829003601f168201915b50505050508152602001600482018054610b019061372f565b80601f0160208091040260200160405190810160405280929190818152602001828054610b2d9061372f565b8015610b7a5780601f10610b4f57610100808354040283529160200191610b7a565b820191906000526020600020905b815481529060010190602001808311610b5d57829003601f168201915b505050505081525050905092915050565b610b9c610b96611ae2565b82611ba3565b610bdb576040517f08c379a0000000000000000000000000000000000000000000000000000000008152600401610bd2906139d2565b60405180910390fd5b610be6838383611c81565b505050565b600b818051602081018201805184825260208301602085012081835280955050505050506000915054906101000a900473ffffffffffffffffffffffffffffffffffffffff1681565b60088054610c419061372f565b80601f0160208091040260200160405190810160405280929190818152602001828054610c6d9061372f565b8015610cba5780601f10610c8f57610100808354040283529160200191610cba565b820191906000526020600020905b815481529060010190602001808311610c9d57829003601f168201915b505050505081565b610cdd8383836040518060200160405280600081525061121d565b505050565b600c81805160208101820180518482526020830160208501208183528095505050505050600091509050806000018054610d1b9061372f565b80601f0160208091040260200160405190810160405280929190818152602001828054610d479061372f565b8015610d945780601f10610d6957610100808354040283529160200191610d94565b820191906000526020600020905b815481529060010190602001808311610d7757829003601f168201915b505050505090806001018054610da99061372f565b80601f0160208091040260200160405190810160405280929190818152602001828054610dd59061372f565b8015610e225780601f10610df757610100808354040283529160200191610e22565b820191906000526020600020905b815481529060010190602001808311610e0557829003601f168201915b505050505090806002018054610e379061372f565b80601f0160208091040260200160405190810160405280929190818152602001828054610e639061372f565b8015610eb05780601f10610e8557610100808354040283529160200191610eb0565b820191906000526020600020905b815481529060010190602001808311610e9357829003601f168201915b505050505090806003018054610ec59061372f565b80601f0160208091040260200160405190810160405280929190818152602001828054610ef19061372f565b8015610f3e5780601f10610f1357610100808354040283529160200191610f3e565b820191906000526020600020905b815481529060010190602001808311610f2157829003601f168201915b505050505090806004018054610f539061372f565b80601f0160208091040260200160405190810160405280929190818152602001828054610f7f9061372f565b8015610fcc5780601f10610fa157610100808354040283529160200191610fcc565b820191906000526020600020905b815481529060010190602001808311610faf57829003601f168201915b5050505050905085565b80600c8484604051610fe9929190613947565b908152602001604051809103902081816110039190613da4565b905050505050565b6000806002600084815260200190815260200160002060009054906101000a900473ffffffffffffffffffffffffffffffffffffffff169050600073ffffffffffffffffffffffffffffffffffffffff168173ffffffffffffffffffffffffffffffffffffffff1614156110b4576040517f08c379a00000000000000000000000000000000000000000000000000000000081526004016110ab90613e24565b60405180910390fd5b80915050919050565b60008073ffffffffffffffffffffffffffffffffffffffff168273ffffffffffffffffffffffffffffffffffffffff16141561112e576040517f08c379a000000000000000000000000000000000000000000000000000000000815260040161112590613eb6565b60405180910390fd5b600360008373ffffffffffffffffffffffffffffffffffffffff1673ffffffffffffffffffffffffffffffffffffffff168152602001908152602001600020549050919050565b6060600180546111849061372f565b80601f01602080910402602001604051908101604052809291908181526020018280546111b09061372f565b80156111fd5780601f106111d2576101008083540402835291602001916111fd565b820191906000526020600020905b8154815290600101906020018083116111e057829003601f168201915b5050505050905090565b611219611212611ae2565b8383611ee8565b5050565b61122e611228611ae2565b83611ba3565b61126d576040517f08c379a0000000000000000000000000000000000000000000000000000000008152600401611264906139d2565b60405180910390fd5b61127984848484612055565b50505050565b6000600b8383604051611293929190613947565b908152602001604051809103902060009054906101000a900473ffffffffffffffffffffffffffffffffffffffff16905092915050565b60606112d582611a76565b611314576040517f08c379a000000000000000000000000000000000000000000000000000000000815260040161130b90613f48565b60405180910390fd5b60006006600084815260200190815260200160002080546113349061372f565b80601f01602080910402602001604051908101604052809291908181526020018280546113609061372f565b80156113ad5780601f10611382576101008083540402835291602001916113ad565b820191906000526020600020905b81548152906001019060200180831161139057829003601f168201915b5050505050905060006113be6120b1565b90506000815114156113d4578192505050611417565b6000825111156114095780826040516020016113f1929190613f99565b60405160208183030381529060405292505050611417565b611412846120c8565b925050505b919050565b6000600560008473ffffffffffffffffffffffffffffffffffffffff1673ffffffffffffffffffffffffffffffffffffffff16815260200190815260200160002060008373ffffffffffffffffffffffffffffffffffffffff1673ffffffffffffffffffffffffffffffffffffffff16815260200190815260200160002060009054906101000a900460ff16905092915050565b600073ffffffffffffffffffffffffffffffffffffffff16600b83836040516114da929190613947565b908152602001604051809103902060009054906101000a900473ffffffffffffffffffffffffffffffffffffffff1673ffffffffffffffffffffffffffffffffffffffff161461152957600080fd5b600061153583836118d0565b90508034101561157a576040517f08c379a000000000000000000000000000000000000000000000000000000000815260040161157190614009565b60405180910390fd5b600083836008604051602001611592939291906140f4565b60405160208183030381529060405290506000600982600a6040516020016115bc93929190614125565b604051602081830303815290604052905060006115d9600761216f565b9050600061162a87878080601f016020809104026020016040519081016040528093929190818152602001838380828437600081840152601f19601f8201169050808301925050505050505061217d565b9050600061163782612332565b905061172b604051806060016040528060318152602001614c476031913989898080601f016020809104026020016040519081016040528093929190818152602001838380828437600081840152601f19601f82011690508083019250505050505050600880546116a79061372f565b80601f01602080910402602001604051908101604052809291908181526020018280546116d39061372f565b80156117205780601f106116f557610100808354040283529160200191611720565b820191906000526020600020905b81548152906001019060200180831161170357829003601f168201915b505050505086612493565b60006117618661173a87612535565b8460405160200161174d939291906142d2565b604051602081830303815290604052612535565b9050600081604051602001611776919061437b565b60405160208183030381529060405290506117a8604051806060016040528060398152602001614c0e60399139611973565b6117e76040518060400160405280600e81526020017f46696e616c20746f6b656e555249000000000000000000000000000000000000815250826126cd565b611808604051806060016040528060398152602001614c7860399139611973565b6118123386612769565b61181c8582612787565b33600b8b8b60405161182f929190613947565b908152602001604051809103902060006101000a81548173ffffffffffffffffffffffffffffffffffffffff021916908373ffffffffffffffffffffffffffffffffffffffff1602179055506118ba6040518060400160405280601b81526020017f2573206861732072656769737465726564206120646f6d61696e210000000000815250336127fb565b6118c46007612897565b50505050505050505050565b60008061192084848080601f016020809104026020016040519081016040528093929190818152602001838380828437600081840152601f19601f8201169050808301925050505050505061217d565b90506000811161192f57600080fd5b60038114156119485766b1a2bc2ec5000091505061196d565b600481141561196157666a94d74f43000091505061196d565b662386f26fc100009150505b92915050565b611a09816040516024016119879190612efa565b6040516020818303038152906040527f41304fac000000000000000000000000000000000000000000000000000000007bffffffffffffffffffffffffffffffffffffffffffffffffffffffff19166020820180517bffffffffffffffffffffffffffffffffffffffffffffffffffffffff83818316178352505050506128ad565b50565b60007f01ffc9a7000000000000000000000000000000000000000000000000000000007bffffffffffffffffffffffffffffffffffffffffffffffffffffffff1916827bffffffffffffffffffffffffffffffffffffffffffffffffffffffff1916149050919050565b60008073ffffffffffffffffffffffffffffffffffffffff166002600084815260200190815260200160002060009054906101000a900473ffffffffffffffffffffffffffffffffffffffff1673ffffffffffffffffffffffffffffffffffffffff1614159050919050565b600033905090565b816004600083815260200190815260200160002060006101000a81548173ffffffffffffffffffffffffffffffffffffffff021916908373ffffffffffffffffffffffffffffffffffffffff160217905550808273ffffffffffffffffffffffffffffffffffffffff16611b5d8361100b565b73ffffffffffffffffffffffffffffffffffffffff167f8c5be1e5ebec7d5bd14f71427d1e84f3dd0314c0f7b2291e5b200ac8c7c3b92560405160405180910390a45050565b6000611bae82611a76565b611bed576040517f08c379a0000000000000000000000000000000000000000000000000000000008152600401611be49061440f565b60405180910390fd5b6000611bf88361100b565b90508073ffffffffffffffffffffffffffffffffffffffff168473ffffffffffffffffffffffffffffffffffffffff161480611c3a5750611c39818561141c565b5b80611c7857508373ffffffffffffffffffffffffffffffffffffffff16611c60846106d9565b73ffffffffffffffffffffffffffffffffffffffff16145b91505092915050565b8273ffffffffffffffffffffffffffffffffffffffff16611ca18261100b565b73ffffffffffffffffffffffffffffffffffffffff1614611cf7576040517f08c379a0000000000000000000000000000000000000000000000000000000008152600401611cee906144a1565b60405180910390fd5b600073ffffffffffffffffffffffffffffffffffffffff168273ffffffffffffffffffffffffffffffffffffffff161415611d67576040517f08c379a0000000000000000000000000000000000000000000000000000000008152600401611d5e90614533565b60405180910390fd5b611d728383836128d6565b611d7d600082611aea565b6001600360008573ffffffffffffffffffffffffffffffffffffffff1673ffffffffffffffffffffffffffffffffffffffff1681526020019081526020016000206000828254611dcd9190614582565b925050819055506001600360008473ffffffffffffffffffffffffffffffffffffffff1673ffffffffffffffffffffffffffffffffffffffff1681526020019081526020016000206000828254611e2491906145b6565b92505081905550816002600083815260200190815260200160002060006101000a81548173ffffffffffffffffffffffffffffffffffffffff021916908373ffffffffffffffffffffffffffffffffffffffff160217905550808273ffffffffffffffffffffffffffffffffffffffff168473ffffffffffffffffffffffffffffffffffffffff167fddf252ad1be2c89b69c2b068fc378daa952ba7f163c4a11628f55a4df523b3ef60405160405180910390a4611ee38383836128db565b505050565b8173ffffffffffffffffffffffffffffffffffffffff168373ffffffffffffffffffffffffffffffffffffffff161415611f57576040517f08c379a0000000000000000000000000000000000000000000000000000000008152600401611f4e90614658565b60405180910390fd5b80600560008573ffffffffffffffffffffffffffffffffffffffff1673ffffffffffffffffffffffffffffffffffffffff16815260200190815260200160002060008473ffffffffffffffffffffffffffffffffffffffff1673ffffffffffffffffffffffffffffffffffffffff16815260200190815260200160002060006101000a81548160ff0219169083151502179055508173ffffffffffffffffffffffffffffffffffffffff168373ffffffffffffffffffffffffffffffffffffffff167f17307eab39ab6107e8899845ad3d59bd9653f200f220920489ca2b5937696c31836040516120489190612e46565b60405180910390a3505050565b612060848484611c81565b61206c848484846128e0565b6120ab576040517f08c379a00000000000000000000000000000000000000000000000000000000081526004016120a2906146ea565b60405180910390fd5b50505050565b606060405180602001604052806000815250905090565b60606120d382611a76565b612112576040517f08c379a00000000000000000000000000000000000000000000000000000000081526004016121099061477c565b60405180910390fd5b600061211c6120b1565b9050600081511161213c5760405180602001604052806000815250612167565b8061214684612332565b604051602001612157929190613f99565b6040516020818303038152906040525b915050919050565b600081600001549050919050565b60008060008084519050600092505b808210156123275760008583815181106121a9576121a861479c565b5b602001015160f81c60f81b9050608060f81b817effffffffffffffffffffffffffffffffffffffffffffffffffffffffffffff191610156121f8576001836121f191906145b6565b9250612313565b60e060f81b817effffffffffffffffffffffffffffffffffffffffffffffffffffffffffffff1916101561223a5760028361223391906145b6565b9250612312565b60f060f81b817effffffffffffffffffffffffffffffffffffffffffffffffffffffffffffff1916101561227c5760038361227591906145b6565b9250612311565b60f8801b817effffffffffffffffffffffffffffffffffffffffffffffffffffffffffffff191610156122bd576004836122b691906145b6565b9250612310565b60fc60f81b817effffffffffffffffffffffffffffffffffffffffffffffffffffffffffffff191610156122ff576005836122f891906145b6565b925061230f565b60068361230c91906145b6565b92505b5b5b5b5b50828061231f906147cb565b93505061218c565b829350505050919050565b6060600082141561237a576040518060400160405280600181526020017f3000000000000000000000000000000000000000000000000000000000000000815250905061248e565b600082905060005b600082146123ac578080612395906147cb565b915050600a826123a59190614843565b9150612382565b60008167ffffffffffffffff8111156123c8576123c761324f565b5b6040519080825280601f01601f1916602001820160405280156123fa5781602001600182028036833780820191505090505b5090505b60008514612487576001826124139190614582565b9150600a856124229190614874565b603061242e91906145b6565b60f81b8183815181106124445761244361479c565b5b60200101907effffffffffffffffffffffffffffffffffffffffffffffffffffffffffffff1916908160001a905350600a856124809190614843565b94506123fe565b8093505050505b919050565b61252f848484846040516024016124ad94939291906148a5565b6040516020818303038152906040527f9fd009f5000000000000000000000000000000000000000000000000000000007bffffffffffffffffffffffffffffffffffffffffffffffffffffffff19166020820180517bffffffffffffffffffffffffffffffffffffffffffffffffffffffff83818316178352505050506128ad565b50505050565b6060600082519050600081141561255e57604051806020016040528060008152509150506126c8565b6000600360028361256f91906145b6565b6125799190614843565b600461258591906148ff565b9050600060208261259691906145b6565b67ffffffffffffffff8111156125af576125ae61324f565b5b6040519080825280601f01601f1916602001820160405280156125e15781602001600182028036833780820191505090505b5090506000604051806060016040528060408152602001614cb1604091399050600181016020830160005b868110156126855760038101905062ffffff818a015116603f8160121c168401518060081b905060ff603f83600c1c1686015116810190508060081b905060ff603f8360061c1686015116810190508060081b905060ff603f831686015116810190508060e01b9050808452600484019350505061260c565b50600386066001811461269f57600281146126af576126ba565b613d3d60f01b60028303526126ba565b603d60f81b60018303525b508484525050819450505050505b919050565b61276582826040516024016126e3929190614959565b6040516020818303038152906040527f4b5c4277000000000000000000000000000000000000000000000000000000007bffffffffffffffffffffffffffffffffffffffffffffffffffffffff19166020820180517bffffffffffffffffffffffffffffffffffffffffffffffffffffffff83818316178352505050506128ad565b5050565b612783828260405180602001604052806000815250612a68565b5050565b61279082611a76565b6127cf576040517f08c379a00000000000000000000000000000000000000000000000000000000081526004016127c690614a02565b60405180910390fd5b806006600084815260200190815260200160002090805190602001906127f6929190612cef565b505050565b6128938282604051602401612811929190614a22565b6040516020818303038152906040527f319af333000000000000000000000000000000000000000000000000000000007bffffffffffffffffffffffffffffffffffffffffffffffffffffffff19166020820180517bffffffffffffffffffffffffffffffffffffffffffffffffffffffff83818316178352505050506128ad565b5050565b6001816000016000828254019250508190555050565b60008151905060006a636f6e736f6c652e6c6f679050602083016000808483855afa5050505050565b505050565b505050565b60006129018473ffffffffffffffffffffffffffffffffffffffff16612ac3565b15612a5b578373ffffffffffffffffffffffffffffffffffffffff1663150b7a0261292a611ae2565b8786866040518563ffffffff1660e01b815260040161294c9493929190614aa7565b6020604051808303816000875af192505050801561298857506040513d601f19601f820116820180604052508101906129859190614b08565b60015b612a0b573d80600081146129b8576040519150601f19603f3d011682016040523d82523d6000602084013e6129bd565b606091505b50600081511415612a03576040517f08c379a00000000000000000000000000000000000000000000000000000000081526004016129fa906146ea565b60405180910390fd5b805181602001fd5b63150b7a0260e01b7bffffffffffffffffffffffffffffffffffffffffffffffffffffffff1916817bffffffffffffffffffffffffffffffffffffffffffffffffffffffff191614915050612a60565b600190505b949350505050565b612a728383612ae6565b612a7f60008484846128e0565b612abe576040517f08c379a0000000000000000000000000000000000000000000000000000000008152600401612ab5906146ea565b60405180910390fd5b505050565b6000808273ffffffffffffffffffffffffffffffffffffffff163b119050919050565b600073ffffffffffffffffffffffffffffffffffffffff168273ffffffffffffffffffffffffffffffffffffffff161415612b56576040517f08c379a0000000000000000000000000000000000000000000000000000000008152600401612b4d90614b81565b60405180910390fd5b612b5f81611a76565b15612b9f576040517f08c379a0000000000000000000000000000000000000000000000000000000008152600401612b9690614bed565b60405180910390fd5b612bab600083836128d6565b6001600360008473ffffffffffffffffffffffffffffffffffffffff1673ffffffffffffffffffffffffffffffffffffffff1681526020019081526020016000206000828254612bfb91906145b6565b92505081905550816002600083815260200190815260200160002060006101000a81548173ffffffffffffffffffffffffffffffffffffffff021916908373ffffffffffffffffffffffffffffffffffffffff160217905550808273ffffffffffffffffffffffffffffffffffffffff16600073ffffffffffffffffffffffffffffffffffffffff167fddf252ad1be2c89b69c2b068fc378daa952ba7f163c4a11628f55a4df523b3ef60405160405180910390a4612cbc600083836128db565b5050565b6040518060a0016040528060608152602001606081526020016060815260200160608152602001606081525090565b828054612cfb9061372f565b90600052602060002090601f016020900481019282612d1d5760008555612d64565b82601f10612d3657805160ff1916838001178555612d64565b82800160010185558215612d64579182015b82811115612d63578251825591602001919060010190612d48565b5b509050612d719190612d75565b5090565b5b80821115612d8e576000816000905550600101612d76565b5090565b6000604051905090565b600080fd5b600080fd5b60007fffffffff0000000000000000000000000000000000000000000000000000000082169050919050565b612ddb81612da6565b8114612de657600080fd5b50565b600081359050612df881612dd2565b92915050565b600060208284031215612e1457612e13612d9c565b5b6000612e2284828501612de9565b91505092915050565b60008115159050919050565b612e4081612e2b565b82525050565b6000602082019050612e5b6000830184612e37565b92915050565b600081519050919050565b600082825260208201905092915050565b60005b83811015612e9b578082015181840152602081019050612e80565b83811115612eaa576000848401525b50505050565b6000601f19601f8301169050919050565b6000612ecc82612e61565b612ed68185612e6c565b9350612ee6818560208601612e7d565b612eef81612eb0565b840191505092915050565b60006020820190508181036000830152612f148184612ec1565b905092915050565b6000819050919050565b612f2f81612f1c565b8114612f3a57600080fd5b50565b600081359050612f4c81612f26565b92915050565b600060208284031215612f6857612f67612d9c565b5b6000612f7684828501612f3d565b91505092915050565b600073ffffffffffffffffffffffffffffffffffffffff82169050919050565b6000612faa82612f7f565b9050919050565b612fba81612f9f565b82525050565b6000602082019050612fd56000830184612fb1565b92915050565b612fe481612f9f565b8114612fef57600080fd5b50565b60008135905061300181612fdb565b92915050565b6000806040838503121561301e5761301d612d9c565b5b600061302c85828601612ff2565b925050602061303d85828601612f3d565b9150509250929050565b600080fd5b600080fd5b600080fd5b60008083601f84011261306c5761306b613047565b5b8235905067ffffffffffffffff8111156130895761308861304c565b5b6020830191508360018202830111156130a5576130a4613051565b5b9250929050565b600080602083850312156130c3576130c2612d9c565b5b600083013567ffffffffffffffff8111156130e1576130e0612da1565b5b6130ed85828601613056565b92509250509250929050565b600082825260208201905092915050565b600061311582612e61565b61311f81856130f9565b935061312f818560208601612e7d565b61313881612eb0565b840191505092915050565b600060a0830160008301518482036000860152613160828261310a565b9150506020830151848203602086015261317a828261310a565b91505060408301518482036040860152613194828261310a565b915050606083015184820360608601526131ae828261310a565b915050608083015184820360808601526131c8828261310a565b9150508091505092915050565b600060208201905081810360008301526131ef8184613143565b905092915050565b6000806000606084860312156132105761320f612d9c565b5b600061321e86828701612ff2565b935050602061322f86828701612ff2565b925050604061324086828701612f3d565b9150509250925092565b600080fd5b7f4e487b7100000000000000000000000000000000000000000000000000000000600052604160045260246000fd5b61328782612eb0565b810181811067ffffffffffffffff821117156132a6576132a561324f565b5b80604052505050565b60006132b9612d92565b90506132c5828261327e565b919050565b600067ffffffffffffffff8211156132e5576132e461324f565b5b6132ee82612eb0565b9050602081019050919050565b82818337600083830152505050565b600061331d613318846132ca565b6132af565b9050828152602081018484840111156133395761333861324a565b5b6133448482856132fb565b509392505050565b600082601f83011261336157613360613047565b5b813561337184826020860161330a565b91505092915050565b6000602082840312156133905761338f612d9c565b5b600082013567ffffffffffffffff8111156133ae576133ad612da1565b5b6133ba8482850161334c565b91505092915050565b600060a08201905081810360008301526133dd8188612ec1565b905081810360208301526133f18187612ec1565b905081810360408301526134058186612ec1565b905081810360608301526134198185612ec1565b9050818103608083015261342d8184612ec1565b90509695505050505050565b600080fd5b600060a0828403121561345457613453613439565b5b81905092915050565b60008060006040848603121561347657613475612d9c565b5b600084013567ffffffffffffffff81111561349457613493612da1565b5b6134a086828701613056565b9350935050602084013567ffffffffffffffff8111156134c3576134c2612da1565b5b6134cf8682870161343e565b9150509250925092565b6000602082840312156134ef576134ee612d9c565b5b60006134fd84828501612ff2565b91505092915050565b61350f81612f1c565b82525050565b600060208201905061352a6000830184613506565b92915050565b61353981612e2b565b811461354457600080fd5b50565b60008135905061355681613530565b92915050565b6000806040838503121561357357613572612d9c565b5b600061358185828601612ff2565b925050602061359285828601613547565b9150509250929050565b600067ffffffffffffffff8211156135b7576135b661324f565b5b6135c082612eb0565b9050602081019050919050565b60006135e06135db8461359c565b6132af565b9050828152602081018484840111156135fc576135fb61324a565b5b6136078482856132fb565b509392505050565b600082601f83011261362457613623613047565b5b81356136348482602086016135cd565b91505092915050565b6000806000806080858703121561365757613656612d9c565b5b600061366587828801612ff2565b945050602061367687828801612ff2565b935050604061368787828801612f3d565b925050606085013567ffffffffffffffff8111156136a8576136a7612da1565b5b6136b48782880161360f565b91505092959194509250565b600080604083850312156136d7576136d6612d9c565b5b60006136e585828601612ff2565b92505060206136f685828601612ff2565b9150509250929050565b7f4e487b7100000000000000000000000000000000000000000000000000000000600052602260045260246000fd5b6000600282049050600182168061374757607f821691505b6020821081141561375b5761375a613700565b5b50919050565b7f4552433732313a20617070726f76656420717565727920666f72206e6f6e657860008201527f697374656e7420746f6b656e0000000000000000000000000000000000000000602082015250565b60006137bd602c83612e6c565b91506137c882613761565b604082019050919050565b600060208201905081810360008301526137ec816137b0565b9050919050565b7f4552433732313a20617070726f76616c20746f2063757272656e74206f776e6560008201527f7200000000000000000000000000000000000000000000000000000000000000602082015250565b600061384f602183612e6c565b915061385a826137f3565b604082019050919050565b6000602082019050818103600083015261387e81613842565b9050919050565b7f4552433732313a20617070726f76652063616c6c6572206973206e6f74206f7760008201527f6e6572206e6f7220617070726f76656420666f7220616c6c0000000000000000602082015250565b60006138e1603883612e6c565b91506138ec82613885565b604082019050919050565b60006020820190508181036000830152613910816138d4565b9050919050565b600081905092915050565b600061392e8385613917565b935061393b8385846132fb565b82840190509392505050565b6000613954828486613922565b91508190509392505050565b7f4552433732313a207472616e736665722063616c6c6572206973206e6f74206f60008201527f776e6572206e6f7220617070726f766564000000000000000000000000000000602082015250565b60006139bc603183612e6c565b91506139c782613960565b604082019050919050565b600060208201905081810360008301526139eb816139af565b9050919050565b600080fd5b600080fd5b600080fd5b60008083356001602003843603038112613a1e57613a1d6139f2565b5b80840192508235915067ffffffffffffffff821115613a4057613a3f6139f7565b5b602083019250600182023603831315613a5c57613a5b6139fc565b5b509250929050565b600082905092915050565b60008190508160005260206000209050919050565b60006020601f8301049050919050565b600082821b905092915050565b600060088302613ad17fffffffffffffffffffffffffffffffffffffffffffffffffffffffffffffffff82613a94565b613adb8683613a94565b95508019841693508086168417925050509392505050565b6000819050919050565b6000613b18613b13613b0e84612f1c565b613af3565b612f1c565b9050919050565b6000819050919050565b613b3283613afd565b613b46613b3e82613b1f565b848454613aa1565b825550505050565b600090565b613b5b613b4e565b613b66818484613b29565b505050565b5b81811015613b8a57613b7f600082613b53565b600181019050613b6c565b5050565b601f821115613bcf57613ba081613a6f565b613ba984613a84565b81016020851015613bb8578190505b613bcc613bc485613a84565b830182613b6b565b50505b505050565b600082821c905092915050565b6000613bf260001984600802613bd4565b1980831691505092915050565b6000613c0b8383613be1565b9150826002028217905092915050565b613c258383613a64565b67ffffffffffffffff811115613c3e57613c3d61324f565b5b613c48825461372f565b613c53828285613b8e565b6000601f831160018114613c825760008415613c70578287013590505b613c7a8582613bff565b865550613ce2565b601f198416613c9086613a6f565b60005b82811015613cb857848901358255600182019150602085019450602081019050613c93565b86831015613cd55784890135613cd1601f891682613be1565b8355505b6001600288020188555050505b50505050505050565b613cf6838383613c1b565b505050565b6000810160008301613d0d8185613a01565b613d18818386613ceb565b505050506001810160208301613d2e8185613a01565b613d39818386613ceb565b505050506002810160408301613d4f8185613a01565b613d5a818386613ceb565b505050506003810160608301613d708185613a01565b613d7b818386613ceb565b505050506004810160808301613d918185613a01565b613d9c818386613ceb565b505050505050565b613dae8282613cfb565b5050565b7f4552433732313a206f776e657220717565727920666f72206e6f6e657869737460008201527f656e7420746f6b656e0000000000000000000000000000000000000000000000602082015250565b6000613e0e602983612e6c565b9150613e1982613db2565b604082019050919050565b60006020820190508181036000830152613e3d81613e01565b9050919050565b7f4552433732313a2062616c616e636520717565727920666f7220746865207a6560008201527f726f206164647265737300000000000000000000000000000000000000000000602082015250565b6000613ea0602a83612e6c565b9150613eab82613e44565b604082019050919050565b60006020820190508181036000830152613ecf81613e93565b9050919050565b7f45524337323155524953746f726167653a2055524920717565727920666f722060008201527f6e6f6e6578697374656e7420746f6b656e000000000000000000000000000000602082015250565b6000613f32603183612e6c565b9150613f3d82613ed6565b604082019050919050565b60006020820190508181036000830152613f6181613f25565b9050919050565b6000613f7382612e61565b613f7d8185613917565b9350613f8d818560208601612e7d565b80840191505092915050565b6000613fa58285613f68565b9150613fb18284613f68565b91508190509392505050565b7f4e6f7420656e6f756768204d6174696320706169640000000000000000000000600082015250565b6000613ff3601583612e6c565b9150613ffe82613fbd565b602082019050919050565b6000602082019050818103600083015261402281613fe6565b9050919050565b7f2e00000000000000000000000000000000000000000000000000000000000000600082015250565b600061405f600183613917565b915061406a82614029565b600182019050919050565b600081546140828161372f565b61408c8186613917565b945060018216600081146140a757600181146140b8576140eb565b60ff198316865281860193506140eb565b6140c185613a6f565b60005b838110156140e3578154818901526001820191506020810190506140c4565b838801955050505b50505092915050565b6000614101828587613922565b915061410c82614052565b91506141188284614075565b9150819050949350505050565b60006141318286614075565b915061413d8285613f68565b91506141498284614075565b9150819050949350505050565b7f7b226e616d65223a202200000000000000000000000000000000000000000000600082015250565b600061418c600a83613917565b915061419782614156565b600a82019050919050565b7f222c20226465736372697074696f6e223a20224120646f6d61696e206f6e207460008201527f6865204e696e6a61206e616d652073657276696365222c2022696d616765223a60208201527f2022646174613a696d6167652f7376672b786d6c3b6261736536342c00000000604082015250565b6000614224605c83613917565b915061422f826141a2565b605c82019050919050565b7f222c226c656e677468223a220000000000000000000000000000000000000000600082015250565b6000614270600c83613917565b915061427b8261423a565b600c82019050919050565b7f227d000000000000000000000000000000000000000000000000000000000000600082015250565b60006142bc600283613917565b91506142c782614286565b600282019050919050565b60006142dd8261417f565b91506142e98286613f68565b91506142f482614217565b91506143008285613f68565b915061430b82614263565b91506143178284613f68565b9150614322826142af565b9150819050949350505050565b7f646174613a6170706c69636174696f6e2f6a736f6e3b6261736536342c000000600082015250565b6000614365601d83613917565b91506143708261432f565b601d82019050919050565b600061438682614358565b91506143928284613f68565b915081905092915050565b7f4552433732313a206f70657261746f7220717565727920666f72206e6f6e657860008201527f697374656e7420746f6b656e0000000000000000000000000000000000000000602082015250565b60006143f9602c83612e6c565b91506144048261439d565b604082019050919050565b60006020820190508181036000830152614428816143ec565b9050919050565b7f4552433732313a207472616e736665722066726f6d20696e636f72726563742060008201527f6f776e6572000000000000000000000000000000000000000000000000000000602082015250565b600061448b602583612e6c565b91506144968261442f565b604082019050919050565b600060208201905081810360008301526144ba8161447e565b9050919050565b7f4552433732313a207472616e7366657220746f20746865207a65726f2061646460008201527f7265737300000000000000000000000000000000000000000000000000000000602082015250565b600061451d602483612e6c565b9150614528826144c1565b604082019050919050565b6000602082019050818103600083015261454c81614510565b9050919050565b7f4e487b7100000000000000000000000000000000000000000000000000000000600052601160045260246000fd5b600061458d82612f1c565b915061459883612f1c565b9250828210156145ab576145aa614553565b5b828203905092915050565b60006145c182612f1c565b91506145cc83612f1c565b9250827fffffffffffffffffffffffffffffffffffffffffffffffffffffffffffffffff0382111561460157614600614553565b5b828201905092915050565b7f4552433732313a20617070726f766520746f2063616c6c657200000000000000600082015250565b6000614642601983612e6c565b915061464d8261460c565b602082019050919050565b6000602082019050818103600083015261467181614635565b9050919050565b7f4552433732313a207472616e7366657220746f206e6f6e20455243373231526560008201527f63656976657220696d706c656d656e7465720000000000000000000000000000602082015250565b60006146d4603283612e6c565b91506146df82614678565b604082019050919050565b60006020820190508181036000830152614703816146c7565b9050919050565b7f4552433732314d657461646174613a2055524920717565727920666f72206e6f60008201527f6e6578697374656e7420746f6b656e0000000000000000000000000000000000602082015250565b6000614766602f83612e6c565b91506147718261470a565b604082019050919050565b6000602082019050818103600083015261479581614759565b9050919050565b7f4e487b7100000000000000000000000000000000000000000000000000000000600052603260045260246000fd5b60006147d682612f1c565b91507fffffffffffffffffffffffffffffffffffffffffffffffffffffffffffffffff82141561480957614808614553565b5b600182019050919050565b7f4e487b7100000000000000000000000000000000000000000000000000000000600052601260045260246000fd5b600061484e82612f1c565b915061485983612f1c565b92508261486957614868614814565b5b828204905092915050565b600061487f82612f1c565b915061488a83612f1c565b92508261489a57614899614814565b5b828206905092915050565b600060808201905081810360008301526148bf8187612ec1565b905081810360208301526148d38186612ec1565b905081810360408301526148e78185612ec1565b90506148f66060830184613506565b95945050505050565b600061490a82612f1c565b915061491583612f1c565b9250817fffffffffffffffffffffffffffffffffffffffffffffffffffffffffffffffff048311821515161561494e5761494d614553565b5b828202905092915050565b600060408201905081810360008301526149738185612ec1565b905081810360208301526149878184612ec1565b90509392505050565b7f45524337323155524953746f726167653a2055524920736574206f66206e6f6e60008201527f6578697374656e7420746f6b656e000000000000000000000000000000000000602082015250565b60006149ec602e83612e6c565b91506149f782614990565b604082019050919050565b60006020820190508181036000830152614a1b816149df565b9050919050565b60006040820190508181036000830152614a3c8185612ec1565b9050614a4b6020830184612fb1565b9392505050565b600081519050919050565b600082825260208201905092915050565b6000614a7982614a52565b614a838185614a5d565b9350614a93818560208601612e7d565b614a9c81612eb0565b840191505092915050565b6000608082019050614abc6000830187612fb1565b614ac96020830186612fb1565b614ad66040830185613506565b8181036060830152614ae88184614a6e565b905095945050505050565b600081519050614b0281612dd2565b92915050565b600060208284031215614b1e57614b1d612d9c565b5b6000614b2c84828501614af3565b91505092915050565b7f4552433732313a206d696e7420746f20746865207a65726f2061646472657373600082015250565b6000614b6b602083612e6c565b9150614b7682614b35565b602082019050919050565b60006020820190508181036000830152614b9a81614b5e565b9050919050565b7f4552433732313a20746f6b656e20616c7265616479206d696e74656400000000600082015250565b6000614bd7601c83612e6c565b9150614be282614ba1565b602082019050919050565b60006020820190508181036000830152614c0681614bca565b905091905056fe0a2d2d2d2d2d2d2d2d2d2d2d2d2d2d2d2d2d2d2d2d2d2d2d2d2d2d2d2d2d2d2d2d2d2d2d2d2d2d2d2d2d2d2d2d2d2d2d2d2d2d2d2d2d2d2d2d5265676973746572696e672025732e2573206f6e2074686520636f6e7472616374207769746820746f6b656e49442025642d2d2d2d2d2d2d2d2d2d2d2d2d2d2d2d2d2d2d2d2d2d2d2d2d2d2d2d2d2d2d2d2d2d2d2d2d2d2d2d2d2d2d2d2d2d2d2d2d2d2d2d2d2d2d2d0a4142434445464748494a4b4c4d4e4f505152535455565758595a6162636465666768696a6b6c6d6e6f707172737475767778797a303132333435363738392b2fa2646970667358221220731dfd46cc77f4eccaa95d02de1413bf8efe7ff8c9b512ab26f2849129f5278c64736f6c634300080a00334869207365722c20646f6d61696e7320636f6e74726163742063726561746564207365723c73766720786d6c6e733d22687474703a2f2f7777772e77332e6f72672f323030302f737667222077696474683d2232373022206865696768743d22323730222066696c6c3d226e6f6e65223e3c706174682066696c6c3d2275726c282342292220643d224d302030683237307632373048307a222f3e3c646566733e3c66696c7465722069643d22412220636f6c6f722d696e746572706f6c6174696f6e2d66696c746572733d2273524742222066696c746572556e6974733d227573657253706163654f6e55736522206865696768743d22323730222077696474683d22323730223e3c666544726f70536861646f772064783d2230222064793d22312220737464446576696174696f6e3d22322220666c6f6f642d6f7061636974793d222e323235222077696474683d223230302522206865696768743d2232303025222f3e3c2f66696c7465723e3c2f646566733e3c7061746820643d224d37322e3836332034322e393439632d2e3636382d2e3338372d312e3432362d2e35392d322e3139372d2e3539732d312e3532392e3230342d322e3139372e35396c2d31302e30383120362e3033322d362e383520332e3933342d31302e30383120362e303332632d2e3636382e3338372d312e3432362e35392d322e3139372e3539732d312e3532392d2e3230342d322e3139372d2e35396c2d382e3031332d342e37323161342e353220342e35322030203020312d312e3538392d312e363136632d2e3338342d2e3636352d2e3539342d312e3431382d2e3630382d322e313837762d392e3331632d2e3031332d2e3737352e3138352d312e3533382e3537322d322e32303861342e323520342e323520302030203120312e3632352d312e3539356c372e3838342d342e3539632e3636382d2e33383720312e3432362d2e353920322e3139372d2e353973312e3532392e32303420322e3139372e35396c372e38383420342e353961342e353220342e353220302030203120312e35383920312e363136632e3338342e3636352e35393420312e3431382e36303820322e31383776362e3033326c362e38352d342e303635762d362e303332632e3031332d2e3737352d2e3138352d312e3533382d2e3537322d322e32303861342e323520342e32352030203020302d312e3632352d312e3539354c34312e3435362032342e3539632d2e3636382d2e3338372d312e3432362d2e35392d322e3139372d2e3539732d312e3532392e3230342d322e3139372e35396c2d31342e38363420382e36353561342e323520342e32352030203020302d312e36323520312e353935632d2e3338372e36372d2e35383520312e3433342d2e35373220322e3230387631372e343431632d2e3031332e3737352e31383520312e3533382e35373220322e32303861342e323520342e323520302030203020312e36323520312e3539356c31342e38363420382e363535632e3636382e33383720312e3432362e353920322e3139372e353973312e3532392d2e32303420322e3139372d2e35396c31302e3038312d352e39303120362e38352d342e3036352031302e3038312d352e393031632e3636382d2e33383720312e3432362d2e353920322e3139372d2e353973312e3532392e32303420322e3139372e35396c372e38383420342e353961342e353220342e353220302030203120312e35383920312e363136632e3338342e3636352e35393420312e3431382e36303820322e31383776392e333131632e3031332e3737352d2e31383520312e3533382d2e35373220322e32303861342e323520342e32352030203020312d312e36323520312e3539356c2d372e38383420342e373231632d2e3636382e3338372d312e3432362e35392d322e3139372e3539732d312e3532392d2e3230342d322e3139372d2e35396c2d372e3838342d342e353961342e353220342e35322030203020312d312e3538392d312e363136632d2e3338352d2e3636352d2e3539342d312e3431382d2e3630382d322e313837762d362e3033326c2d362e383520342e30363576362e303332632d2e3031332e3737352e31383520312e3533382e35373220322e32303861342e323520342e323520302030203020312e36323520312e3539356c31342e38363420382e363535632e3636382e33383720312e3432362e353920322e3139372e353973312e3532392d2e32303420322e3139372d2e35396c31342e3836342d382e363535632e3635372d2e33393420312e3230342d2e393520312e3538392d312e363136732e3539342d312e3431382e3630392d322e3138375635352e353338632e3031332d2e3737352d2e3138352d312e3533382d2e3537322d322e32303861342e323520342e32352030203020302d312e3632352d312e3539356c2d31342e3939332d382e3738367a222066696c6c3d2223666666222f3e3c646566733e3c6c696e6561724772616469656e742069643d2242222078313d2230222079313d2230222078323d22323730222079323d2232373022206772616469656e74556e6974733d227573657253706163654f6e557365223e3c73746f702073746f702d636f6c6f723d2223636235656565222f3e3c73746f70206f66667365743d2231222073746f702d636f6c6f723d2223306364376534222073746f702d6f7061636974793d222e3939222f3e3c2f6c696e6561724772616469656e743e3c2f646566733e3c7465787420783d2233322e352220793d223233312220666f6e742d73697a653d223237222066696c6c3d2223666666222066696c7465723d2275726c282341292220666f6e742d66616d696c793d22506c7573204a616b617274612053616e732c44656a6156752053616e732c4e6f746f20436f6c6f7220456d6f6a692c4170706c6520436f6c6f7220456d6f6a692c73616e732d73657269662220666f6e742d7765696768743d22626f6c64223e",
  "linkReferences": {},
  "deployedLinkReferences": {}
}